{
  "_format": "hh-sol-artifact-1",
  "contractName": "Booking",
  "sourceName": "contracts/Booking.sol",
  "abi": [
    {
      "inputs": [],
      "stateMutability": "nonpayable",
      "type": "constructor"
    },
    {
      "anonymous": false,
      "inputs": [
        {
          "indexed": true,
          "internalType": "address",
          "name": "owner",
          "type": "address"
        },
        {
          "indexed": true,
          "internalType": "address",
          "name": "approved",
          "type": "address"
        },
        {
          "indexed": true,
          "internalType": "uint256",
          "name": "tokenId",
          "type": "uint256"
        }
      ],
      "name": "Approval",
      "type": "event"
    },
    {
      "anonymous": false,
      "inputs": [
        {
          "indexed": true,
          "internalType": "address",
          "name": "owner",
          "type": "address"
        },
        {
          "indexed": true,
          "internalType": "address",
          "name": "operator",
          "type": "address"
        },
        {
          "indexed": false,
          "internalType": "bool",
          "name": "approved",
          "type": "bool"
        }
      ],
      "name": "ApprovalForAll",
      "type": "event"
    },
    {
      "anonymous": false,
      "inputs": [
        {
          "indexed": false,
          "internalType": "uint256",
          "name": "_fromTokenId",
          "type": "uint256"
        },
        {
          "indexed": false,
          "internalType": "uint256",
          "name": "_toTokenId",
          "type": "uint256"
        }
      ],
      "name": "BatchMetadataUpdate",
      "type": "event"
    },
    {
      "anonymous": false,
      "inputs": [
        {
          "indexed": false,
          "internalType": "uint256",
          "name": "_tokenId",
          "type": "uint256"
        }
      ],
      "name": "MetadataUpdate",
      "type": "event"
    },
    {
      "anonymous": false,
      "inputs": [
        {
          "indexed": true,
          "internalType": "address",
          "name": "from",
          "type": "address"
        },
        {
          "indexed": true,
          "internalType": "address",
          "name": "to",
          "type": "address"
        },
        {
          "indexed": true,
          "internalType": "uint256",
          "name": "tokenId",
          "type": "uint256"
        }
      ],
      "name": "Transfer",
      "type": "event"
    },
    {
      "inputs": [
        {
          "internalType": "address",
          "name": "to",
          "type": "address"
        },
        {
          "internalType": "uint256",
          "name": "tokenId",
          "type": "uint256"
        }
      ],
      "name": "approve",
      "outputs": [],
      "stateMutability": "nonpayable",
      "type": "function"
    },
    {
      "inputs": [
        {
          "internalType": "address",
          "name": "owner",
          "type": "address"
        }
      ],
      "name": "balanceOf",
      "outputs": [
        {
          "internalType": "uint256",
          "name": "",
          "type": "uint256"
        }
      ],
      "stateMutability": "view",
      "type": "function"
    },
    {
      "inputs": [],
      "name": "getAllBookings",
      "outputs": [
        {
          "components": [
            {
              "internalType": "address",
              "name": "receiver",
              "type": "address"
            },
            {
              "internalType": "uint256",
              "name": "id",
              "type": "uint256"
            }
          ],
          "internalType": "struct Booking.BookingStruct[]",
          "name": "",
          "type": "tuple[]"
        }
      ],
      "stateMutability": "view",
      "type": "function"
    },
    {
      "inputs": [
        {
          "internalType": "uint256",
          "name": "tokenId",
          "type": "uint256"
        }
      ],
      "name": "getApproved",
      "outputs": [
        {
          "internalType": "address",
          "name": "",
          "type": "address"
        }
      ],
      "stateMutability": "view",
      "type": "function"
    },
    {
      "inputs": [
        {
          "internalType": "address",
          "name": "owner",
          "type": "address"
        },
        {
          "internalType": "address",
          "name": "operator",
          "type": "address"
        }
      ],
      "name": "isApprovedForAll",
      "outputs": [
        {
          "internalType": "bool",
          "name": "",
          "type": "bool"
        }
      ],
      "stateMutability": "view",
      "type": "function"
    },
    {
      "inputs": [
        {
          "internalType": "address",
          "name": "to",
          "type": "address"
        },
        {
          "internalType": "uint256",
          "name": "tokenId",
          "type": "uint256"
        },
        {
          "internalType": "string",
          "name": "tokenURI",
          "type": "string"
        }
      ],
      "name": "mint",
      "outputs": [],
      "stateMutability": "nonpayable",
      "type": "function"
    },
    {
      "inputs": [],
      "name": "name",
      "outputs": [
        {
          "internalType": "string",
          "name": "",
          "type": "string"
        }
      ],
      "stateMutability": "view",
      "type": "function"
    },
    {
      "inputs": [
        {
          "internalType": "uint256",
          "name": "tokenId",
          "type": "uint256"
        }
      ],
      "name": "ownerOf",
      "outputs": [
        {
          "internalType": "address",
          "name": "",
          "type": "address"
        }
      ],
      "stateMutability": "view",
      "type": "function"
    },
    {
      "inputs": [
        {
          "internalType": "address",
          "name": "from",
          "type": "address"
        },
        {
          "internalType": "address",
          "name": "to",
          "type": "address"
        },
        {
          "internalType": "uint256",
          "name": "tokenId",
          "type": "uint256"
        }
      ],
      "name": "safeTransferFrom",
      "outputs": [],
      "stateMutability": "nonpayable",
      "type": "function"
    },
    {
      "inputs": [
        {
          "internalType": "address",
          "name": "from",
          "type": "address"
        },
        {
          "internalType": "address",
          "name": "to",
          "type": "address"
        },
        {
          "internalType": "uint256",
          "name": "tokenId",
          "type": "uint256"
        },
        {
          "internalType": "bytes",
          "name": "data",
          "type": "bytes"
        }
      ],
      "name": "safeTransferFrom",
      "outputs": [],
      "stateMutability": "nonpayable",
      "type": "function"
    },
    {
      "inputs": [
        {
          "internalType": "address",
          "name": "operator",
          "type": "address"
        },
        {
          "internalType": "bool",
          "name": "approved",
          "type": "bool"
        }
      ],
      "name": "setApprovalForAll",
      "outputs": [],
      "stateMutability": "nonpayable",
      "type": "function"
    },
    {
      "inputs": [
        {
          "internalType": "bytes4",
          "name": "interfaceId",
          "type": "bytes4"
        }
      ],
      "name": "supportsInterface",
      "outputs": [
        {
          "internalType": "bool",
          "name": "",
          "type": "bool"
        }
      ],
      "stateMutability": "view",
      "type": "function"
    },
    {
      "inputs": [],
      "name": "symbol",
      "outputs": [
        {
          "internalType": "string",
          "name": "",
          "type": "string"
        }
      ],
      "stateMutability": "view",
      "type": "function"
    },
    {
      "inputs": [
        {
          "internalType": "uint256",
          "name": "tokenId",
          "type": "uint256"
        }
      ],
      "name": "tokenURI",
      "outputs": [
        {
          "internalType": "string",
          "name": "",
          "type": "string"
        }
      ],
      "stateMutability": "view",
      "type": "function"
    },
    {
      "inputs": [
        {
          "internalType": "address",
          "name": "from",
          "type": "address"
        },
        {
          "internalType": "address",
          "name": "to",
          "type": "address"
        },
        {
          "internalType": "uint256",
          "name": "tokenId",
          "type": "uint256"
        }
      ],
      "name": "transferFrom",
      "outputs": [],
      "stateMutability": "nonpayable",
      "type": "function"
    }
  ],
  "bytecode": "0x60806040523480156200001157600080fd5b506040518060400160405280600781526020017f426f6f6b696e67000000000000000000000000000000000000000000000000008152506040518060400160405280600481526020017f424e465400000000000000000000000000000000000000000000000000000000815250816000908051906020019062000096929190620000b8565b508060019080519060200190620000af929190620000b8565b505050620001cd565b828054620000c69062000197565b90600052602060002090601f016020900481019282620000ea576000855562000136565b82601f106200010557805160ff191683800117855562000136565b8280016001018555821562000136579182015b828111156200013557825182559160200191906001019062000118565b5b50905062000145919062000149565b5090565b5b80821115620001645760008160009055506001016200014a565b5090565b7f4e487b7100000000000000000000000000000000000000000000000000000000600052602260045260246000fd5b60006002820490506001821680620001b057607f821691505b60208210811415620001c757620001c662000168565b5b50919050565b612ba280620001dd6000396000f3fe608060405234801561001057600080fd5b50600436106100f55760003560e01c80636352211e11610097578063b88d4fde11610066578063b88d4fde14610284578063c87b56dd146102a0578063d3fc9864146102d0578063e985e9c5146102ec576100f5565b80636352211e146101ea57806370a082311461021a57806395d89b411461024a578063a22cb46514610268576100f5565b8063095ea7b3116100d3578063095ea7b31461017857806323b872dd146101945780634245f2fe146101b057806342842e0e146101ce576100f5565b806301ffc9a7146100fa57806306fdde031461012a578063081812fc14610148575b600080fd5b610114600480360381019061010f9190611bd4565b61031c565b6040516101219190611c1c565b60405180910390f35b61013261037d565b60405161013f9190611cd0565b60405180910390f35b610162600480360381019061015d9190611d28565b61040f565b60405161016f9190611d96565b60405180910390f35b610192600480360381019061018d9190611ddd565b610455565b005b6101ae60048036038101906101a99190611e1d565b61056d565b005b6101b86105cd565b6040516101c59190611f6c565b60405180910390f35b6101e860048036038101906101e39190611e1d565b61068c565b005b61020460048036038101906101ff9190611d28565b6106ac565b6040516102119190611d96565b60405180910390f35b610234600480360381019061022f9190611f8e565b610733565b6040516102419190611fca565b60405180910390f35b6102526107eb565b60405161025f9190611cd0565b60405180910390f35b610282600480360381019061027d9190612011565b61087d565b005b61029e60048036038101906102999190612186565b610893565b005b6102ba60048036038101906102b59190611d28565b6108f5565b6040516102c79190611cd0565b60405180910390f35b6102ea60048036038101906102e591906122aa565b610a08565b005b61030660048036038101906103019190612319565b610aca565b6040516103139190611c1c565b60405180910390f35b6000634906490660e01b7bffffffffffffffffffffffffffffffffffffffffffffffffffffffff1916827bffffffffffffffffffffffffffffffffffffffffffffffffffffffff19161480610376575061037582610b5e565b5b9050919050565b60606000805461038c90612388565b80601f01602080910402602001604051908101604052809291908181526020018280546103b890612388565b80156104055780601f106103da57610100808354040283529160200191610405565b820191906000526020600020905b8154815290600101906020018083116103e857829003601f168201915b5050505050905090565b600061041a82610c40565b6004600083815260200190815260200160002060009054906101000a900473ffffffffffffffffffffffffffffffffffffffff169050919050565b6000610460826106ac565b90508073ffffffffffffffffffffffffffffffffffffffff168373ffffffffffffffffffffffffffffffffffffffff1614156104d1576040517f08c379a00000000000000000000000000000000000000000000000000000000081526004016104c89061242c565b60405180910390fd5b8073ffffffffffffffffffffffffffffffffffffffff166104f0610c8b565b73ffffffffffffffffffffffffffffffffffffffff16148061051f575061051e81610519610c8b565b610aca565b5b61055e576040517f08c379a0000000000000000000000000000000000000000000000000000000008152600401610555906124be565b60405180910390fd5b6105688383610c93565b505050565b61057e610578610c8b565b82610d4c565b6105bd576040517f08c379a00000000000000000000000000000000000000000000000000000000081526004016105b490612550565b60405180910390fd5b6105c8838383610de1565b505050565b60606007805480602002602001604051908101604052809291908181526020016000905b8282101561068357838290600052602060002090600202016040518060400160405290816000820160009054906101000a900473ffffffffffffffffffffffffffffffffffffffff1673ffffffffffffffffffffffffffffffffffffffff1673ffffffffffffffffffffffffffffffffffffffff168152602001600182015481525050815260200190600101906105f1565b50505050905090565b6106a783838360405180602001604052806000815250610893565b505050565b6000806106b8836110db565b9050600073ffffffffffffffffffffffffffffffffffffffff168173ffffffffffffffffffffffffffffffffffffffff16141561072a576040517f08c379a0000000000000000000000000000000000000000000000000000000008152600401610721906125bc565b60405180910390fd5b80915050919050565b60008073ffffffffffffffffffffffffffffffffffffffff168273ffffffffffffffffffffffffffffffffffffffff1614156107a4576040517f08c379a000000000000000000000000000000000000000000000000000000000815260040161079b9061264e565b60405180910390fd5b600360008373ffffffffffffffffffffffffffffffffffffffff1673ffffffffffffffffffffffffffffffffffffffff168152602001908152602001600020549050919050565b6060600180546107fa90612388565b80601f016020809104026020016040519081016040528092919081815260200182805461082690612388565b80156108735780601f1061084857610100808354040283529160200191610873565b820191906000526020600020905b81548152906001019060200180831161085657829003601f168201915b5050505050905090565b61088f610888610c8b565b8383611118565b5050565b6108a461089e610c8b565b83610d4c565b6108e3576040517f08c379a00000000000000000000000000000000000000000000000000000000081526004016108da90612550565b60405180910390fd5b6108ef84848484611285565b50505050565b606061090082610c40565b600060066000848152602001908152602001600020805461092090612388565b80601f016020809104026020016040519081016040528092919081815260200182805461094c90612388565b80156109995780601f1061096e57610100808354040283529160200191610999565b820191906000526020600020905b81548152906001019060200180831161097c57829003601f168201915b5050505050905060006109aa6112e1565b90506000815114156109c0578192505050610a03565b6000825111156109f55780826040516020016109dd9291906126aa565b60405160208183030381529060405292505050610a03565b6109fe846112f8565b925050505b919050565b610a128383611360565b610a1c828261157e565b600760405180604001604052808573ffffffffffffffffffffffffffffffffffffffff16815260200184815250908060018154018082558091505060019003906000526020600020906002020160009091909190915060008201518160000160006101000a81548173ffffffffffffffffffffffffffffffffffffffff021916908373ffffffffffffffffffffffffffffffffffffffff160217905550602082015181600101555050505050565b6000600560008473ffffffffffffffffffffffffffffffffffffffff1673ffffffffffffffffffffffffffffffffffffffff16815260200190815260200160002060008373ffffffffffffffffffffffffffffffffffffffff1673ffffffffffffffffffffffffffffffffffffffff16815260200190815260200160002060009054906101000a900460ff16905092915050565b60007f80ac58cd000000000000000000000000000000000000000000000000000000007bffffffffffffffffffffffffffffffffffffffffffffffffffffffff1916827bffffffffffffffffffffffffffffffffffffffffffffffffffffffff19161480610c2957507f5b5e139f000000000000000000000000000000000000000000000000000000007bffffffffffffffffffffffffffffffffffffffffffffffffffffffff1916827bffffffffffffffffffffffffffffffffffffffffffffffffffffffff1916145b80610c395750610c3882611629565b5b9050919050565b610c4981611693565b610c88576040517f08c379a0000000000000000000000000000000000000000000000000000000008152600401610c7f906125bc565b60405180910390fd5b50565b600033905090565b816004600083815260200190815260200160002060006101000a81548173ffffffffffffffffffffffffffffffffffffffff021916908373ffffffffffffffffffffffffffffffffffffffff160217905550808273ffffffffffffffffffffffffffffffffffffffff16610d06836106ac565b73ffffffffffffffffffffffffffffffffffffffff167f8c5be1e5ebec7d5bd14f71427d1e84f3dd0314c0f7b2291e5b200ac8c7c3b92560405160405180910390a45050565b600080610d58836106ac565b90508073ffffffffffffffffffffffffffffffffffffffff168473ffffffffffffffffffffffffffffffffffffffff161480610d9a5750610d998185610aca565b5b80610dd857508373ffffffffffffffffffffffffffffffffffffffff16610dc08461040f565b73ffffffffffffffffffffffffffffffffffffffff16145b91505092915050565b8273ffffffffffffffffffffffffffffffffffffffff16610e01826106ac565b73ffffffffffffffffffffffffffffffffffffffff1614610e57576040517f08c379a0000000000000000000000000000000000000000000000000000000008152600401610e4e90612740565b60405180910390fd5b600073ffffffffffffffffffffffffffffffffffffffff168273ffffffffffffffffffffffffffffffffffffffff161415610ec7576040517f08c379a0000000000000000000000000000000000000000000000000000000008152600401610ebe906127d2565b60405180910390fd5b610ed483838360016116d4565b8273ffffffffffffffffffffffffffffffffffffffff16610ef4826106ac565b73ffffffffffffffffffffffffffffffffffffffff1614610f4a576040517f08c379a0000000000000000000000000000000000000000000000000000000008152600401610f4190612740565b60405180910390fd5b6004600082815260200190815260200160002060006101000a81549073ffffffffffffffffffffffffffffffffffffffff02191690556001600360008573ffffffffffffffffffffffffffffffffffffffff1673ffffffffffffffffffffffffffffffffffffffff168152602001908152602001600020600082825403925050819055506001600360008473ffffffffffffffffffffffffffffffffffffffff1673ffffffffffffffffffffffffffffffffffffffff16815260200190815260200160002060008282540192505081905550816002600083815260200190815260200160002060006101000a81548173ffffffffffffffffffffffffffffffffffffffff021916908373ffffffffffffffffffffffffffffffffffffffff160217905550808273ffffffffffffffffffffffffffffffffffffffff168473ffffffffffffffffffffffffffffffffffffffff167fddf252ad1be2c89b69c2b068fc378daa952ba7f163c4a11628f55a4df523b3ef60405160405180910390a46110d683838360016116da565b505050565b60006002600083815260200190815260200160002060009054906101000a900473ffffffffffffffffffffffffffffffffffffffff169050919050565b8173ffffffffffffffffffffffffffffffffffffffff168373ffffffffffffffffffffffffffffffffffffffff161415611187576040517f08c379a000000000000000000000000000000000000000000000000000000000815260040161117e9061283e565b60405180910390fd5b80600560008573ffffffffffffffffffffffffffffffffffffffff1673ffffffffffffffffffffffffffffffffffffffff16815260200190815260200160002060008473ffffffffffffffffffffffffffffffffffffffff1673ffffffffffffffffffffffffffffffffffffffff16815260200190815260200160002060006101000a81548160ff0219169083151502179055508173ffffffffffffffffffffffffffffffffffffffff168373ffffffffffffffffffffffffffffffffffffffff167f17307eab39ab6107e8899845ad3d59bd9653f200f220920489ca2b5937696c31836040516112789190611c1c565b60405180910390a3505050565b611290848484610de1565b61129c848484846116e0565b6112db576040517f08c379a00000000000000000000000000000000000000000000000000000000081526004016112d2906128d0565b60405180910390fd5b50505050565b606060405180602001604052806000815250905090565b606061130382610c40565b600061130d6112e1565b9050600081511161132d5760405180602001604052806000815250611358565b8061133784611877565b6040516020016113489291906126aa565b6040516020818303038152906040525b915050919050565b600073ffffffffffffffffffffffffffffffffffffffff168273ffffffffffffffffffffffffffffffffffffffff1614156113d0576040517f08c379a00000000000000000000000000000000000000000000000000000000081526004016113c79061293c565b60405180910390fd5b6113d981611693565b15611419576040517f08c379a0000000000000000000000000000000000000000000000000000000008152600401611410906129a8565b60405180910390fd5b6114276000838360016116d4565b61143081611693565b15611470576040517f08c379a0000000000000000000000000000000000000000000000000000000008152600401611467906129a8565b60405180910390fd5b6001600360008473ffffffffffffffffffffffffffffffffffffffff1673ffffffffffffffffffffffffffffffffffffffff16815260200190815260200160002060008282540192505081905550816002600083815260200190815260200160002060006101000a81548173ffffffffffffffffffffffffffffffffffffffff021916908373ffffffffffffffffffffffffffffffffffffffff160217905550808273ffffffffffffffffffffffffffffffffffffffff16600073ffffffffffffffffffffffffffffffffffffffff167fddf252ad1be2c89b69c2b068fc378daa952ba7f163c4a11628f55a4df523b3ef60405160405180910390a461157a6000838360016116da565b5050565b61158782611693565b6115c6576040517f08c379a00000000000000000000000000000000000000000000000000000000081526004016115bd90612a3a565b60405180910390fd5b806006600084815260200190815260200160002090805190602001906115ed929190611ac5565b507ff8e1a15aba9398e019f0b49df1a4fde98ee17ae345cb5f6b5e2c27f5033e8ce78260405161161d9190611fca565b60405180910390a15050565b60007f01ffc9a7000000000000000000000000000000000000000000000000000000007bffffffffffffffffffffffffffffffffffffffffffffffffffffffff1916827bffffffffffffffffffffffffffffffffffffffffffffffffffffffff1916149050919050565b60008073ffffffffffffffffffffffffffffffffffffffff166116b5836110db565b73ffffffffffffffffffffffffffffffffffffffff1614159050919050565b50505050565b50505050565b60006117018473ffffffffffffffffffffffffffffffffffffffff1661194f565b1561186a578373ffffffffffffffffffffffffffffffffffffffff1663150b7a0261172a610c8b565b8786866040518563ffffffff1660e01b815260040161174c9493929190612aaf565b602060405180830381600087803b15801561176657600080fd5b505af192505050801561179757506040513d601f19601f820116820180604052508101906117949190612b10565b60015b61181a573d80600081146117c7576040519150601f19603f3d011682016040523d82523d6000602084013e6117cc565b606091505b50600081511415611812576040517f08c379a0000000000000000000000000000000000000000000000000000000008152600401611809906128d0565b60405180910390fd5b805181602001fd5b63150b7a0260e01b7bffffffffffffffffffffffffffffffffffffffffffffffffffffffff1916817bffffffffffffffffffffffffffffffffffffffffffffffffffffffff19161491505061186f565b600190505b949350505050565b60606000600161188684611972565b01905060008167ffffffffffffffff8111156118a5576118a461205b565b5b6040519080825280601f01601f1916602001820160405280156118d75781602001600182028036833780820191505090505b509050600082602001820190505b600115611944578080600190039150507f3031323334353637383961626364656600000000000000000000000000000000600a86061a8153600a858161192e5761192d612b3d565b5b049450600085141561193f57611944565b6118e5565b819350505050919050565b6000808273ffffffffffffffffffffffffffffffffffffffff163b119050919050565b600080600090507a184f03e93ff9f4daa797ed6e38ed64bf6a1f01000000000000000083106119d0577a184f03e93ff9f4daa797ed6e38ed64bf6a1f01000000000000000083816119c6576119c5612b3d565b5b0492506040810190505b6d04ee2d6d415b85acef81000000008310611a0d576d04ee2d6d415b85acef81000000008381611a0357611a02612b3d565b5b0492506020810190505b662386f26fc100008310611a3c57662386f26fc100008381611a3257611a31612b3d565b5b0492506010810190505b6305f5e1008310611a65576305f5e1008381611a5b57611a5a612b3d565b5b0492506008810190505b6127108310611a8a576127108381611a8057611a7f612b3d565b5b0492506004810190505b60648310611aad5760648381611aa357611aa2612b3d565b5b0492506002810190505b600a8310611abc576001810190505b80915050919050565b828054611ad190612388565b90600052602060002090601f016020900481019282611af35760008555611b3a565b82601f10611b0c57805160ff1916838001178555611b3a565b82800160010185558215611b3a579182015b82811115611b39578251825591602001919060010190611b1e565b5b509050611b479190611b4b565b5090565b5b80821115611b64576000816000905550600101611b4c565b5090565b6000604051905090565b600080fd5b600080fd5b60007fffffffff0000000000000000000000000000000000000000000000000000000082169050919050565b611bb181611b7c565b8114611bbc57600080fd5b50565b600081359050611bce81611ba8565b92915050565b600060208284031215611bea57611be9611b72565b5b6000611bf884828501611bbf565b91505092915050565b60008115159050919050565b611c1681611c01565b82525050565b6000602082019050611c316000830184611c0d565b92915050565b600081519050919050565b600082825260208201905092915050565b60005b83811015611c71578082015181840152602081019050611c56565b83811115611c80576000848401525b50505050565b6000601f19601f8301169050919050565b6000611ca282611c37565b611cac8185611c42565b9350611cbc818560208601611c53565b611cc581611c86565b840191505092915050565b60006020820190508181036000830152611cea8184611c97565b905092915050565b6000819050919050565b611d0581611cf2565b8114611d1057600080fd5b50565b600081359050611d2281611cfc565b92915050565b600060208284031215611d3e57611d3d611b72565b5b6000611d4c84828501611d13565b91505092915050565b600073ffffffffffffffffffffffffffffffffffffffff82169050919050565b6000611d8082611d55565b9050919050565b611d9081611d75565b82525050565b6000602082019050611dab6000830184611d87565b92915050565b611dba81611d75565b8114611dc557600080fd5b50565b600081359050611dd781611db1565b92915050565b60008060408385031215611df457611df3611b72565b5b6000611e0285828601611dc8565b9250506020611e1385828601611d13565b9150509250929050565b600080600060608486031215611e3657611e35611b72565b5b6000611e4486828701611dc8565b9350506020611e5586828701611dc8565b9250506040611e6686828701611d13565b9150509250925092565b600081519050919050565b600082825260208201905092915050565b6000819050602082019050919050565b611ea581611d75565b82525050565b611eb481611cf2565b82525050565b604082016000820151611ed06000850182611e9c565b506020820151611ee36020850182611eab565b50505050565b6000611ef58383611eba565b60408301905092915050565b6000602082019050919050565b6000611f1982611e70565b611f238185611e7b565b9350611f2e83611e8c565b8060005b83811015611f5f578151611f468882611ee9565b9750611f5183611f01565b925050600181019050611f32565b5085935050505092915050565b60006020820190508181036000830152611f868184611f0e565b905092915050565b600060208284031215611fa457611fa3611b72565b5b6000611fb284828501611dc8565b91505092915050565b611fc481611cf2565b82525050565b6000602082019050611fdf6000830184611fbb565b92915050565b611fee81611c01565b8114611ff957600080fd5b50565b60008135905061200b81611fe5565b92915050565b6000806040838503121561202857612027611b72565b5b600061203685828601611dc8565b925050602061204785828601611ffc565b9150509250929050565b600080fd5b600080fd5b7f4e487b7100000000000000000000000000000000000000000000000000000000600052604160045260246000fd5b61209382611c86565b810181811067ffffffffffffffff821117156120b2576120b161205b565b5b80604052505050565b60006120c5611b68565b90506120d1828261208a565b919050565b600067ffffffffffffffff8211156120f1576120f061205b565b5b6120fa82611c86565b9050602081019050919050565b82818337600083830152505050565b6000612129612124846120d6565b6120bb565b90508281526020810184848401111561214557612144612056565b5b612150848285612107565b509392505050565b600082601f83011261216d5761216c612051565b5b813561217d848260208601612116565b91505092915050565b600080600080608085870312156121a05761219f611b72565b5b60006121ae87828801611dc8565b94505060206121bf87828801611dc8565b93505060406121d087828801611d13565b925050606085013567ffffffffffffffff8111156121f1576121f0611b77565b5b6121fd87828801612158565b91505092959194509250565b600067ffffffffffffffff8211156122245761222361205b565b5b61222d82611c86565b9050602081019050919050565b600061224d61224884612209565b6120bb565b90508281526020810184848401111561226957612268612056565b5b612274848285612107565b509392505050565b600082601f83011261229157612290612051565b5b81356122a184826020860161223a565b91505092915050565b6000806000606084860312156122c3576122c2611b72565b5b60006122d186828701611dc8565b93505060206122e286828701611d13565b925050604084013567ffffffffffffffff81111561230357612302611b77565b5b61230f8682870161227c565b9150509250925092565b600080604083850312156123305761232f611b72565b5b600061233e85828601611dc8565b925050602061234f85828601611dc8565b9150509250929050565b7f4e487b7100000000000000000000000000000000000000000000000000000000600052602260045260246000fd5b600060028204905060018216806123a057607f821691505b602082108114156123b4576123b3612359565b5b50919050565b7f4552433732313a20617070726f76616c20746f2063757272656e74206f776e6560008201527f7200000000000000000000000000000000000000000000000000000000000000602082015250565b6000612416602183611c42565b9150612421826123ba565b604082019050919050565b6000602082019050818103600083015261244581612409565b9050919050565b7f4552433732313a20617070726f76652063616c6c6572206973206e6f7420746f60008201527f6b656e206f776e6572206f7220617070726f76656420666f7220616c6c000000602082015250565b60006124a8603d83611c42565b91506124b38261244c565b604082019050919050565b600060208201905081810360008301526124d78161249b565b9050919050565b7f4552433732313a2063616c6c6572206973206e6f7420746f6b656e206f776e6560008201527f72206f7220617070726f76656400000000000000000000000000000000000000602082015250565b600061253a602d83611c42565b9150612545826124de565b604082019050919050565b600060208201905081810360008301526125698161252d565b9050919050565b7f4552433732313a20696e76616c696420746f6b656e2049440000000000000000600082015250565b60006125a6601883611c42565b91506125b182612570565b602082019050919050565b600060208201905081810360008301526125d581612599565b9050919050565b7f4552433732313a2061646472657373207a65726f206973206e6f74206120766160008201527f6c6964206f776e65720000000000000000000000000000000000000000000000602082015250565b6000612638602983611c42565b9150612643826125dc565b604082019050919050565b600060208201905081810360008301526126678161262b565b9050919050565b600081905092915050565b600061268482611c37565b61268e818561266e565b935061269e818560208601611c53565b80840191505092915050565b60006126b68285612679565b91506126c28284612679565b91508190509392505050565b7f4552433732313a207472616e736665722066726f6d20696e636f72726563742060008201527f6f776e6572000000000000000000000000000000000000000000000000000000602082015250565b600061272a602583611c42565b9150612735826126ce565b604082019050919050565b600060208201905081810360008301526127598161271d565b9050919050565b7f4552433732313a207472616e7366657220746f20746865207a65726f2061646460008201527f7265737300000000000000000000000000000000000000000000000000000000602082015250565b60006127bc602483611c42565b91506127c782612760565b604082019050919050565b600060208201905081810360008301526127eb816127af565b9050919050565b7f4552433732313a20617070726f766520746f2063616c6c657200000000000000600082015250565b6000612828601983611c42565b9150612833826127f2565b602082019050919050565b600060208201905081810360008301526128578161281b565b9050919050565b7f4552433732313a207472616e7366657220746f206e6f6e20455243373231526560008201527f63656976657220696d706c656d656e7465720000000000000000000000000000602082015250565b60006128ba603283611c42565b91506128c58261285e565b604082019050919050565b600060208201905081810360008301526128e9816128ad565b9050919050565b7f4552433732313a206d696e7420746f20746865207a65726f2061646472657373600082015250565b6000612926602083611c42565b9150612931826128f0565b602082019050919050565b6000602082019050818103600083015261295581612919565b9050919050565b7f4552433732313a20746f6b656e20616c7265616479206d696e74656400000000600082015250565b6000612992601c83611c42565b915061299d8261295c565b602082019050919050565b600060208201905081810360008301526129c181612985565b9050919050565b7f45524337323155524953746f726167653a2055524920736574206f66206e6f6e60008201527f6578697374656e7420746f6b656e000000000000000000000000000000000000602082015250565b6000612a24602e83611c42565b9150612a2f826129c8565b604082019050919050565b60006020820190508181036000830152612a5381612a17565b9050919050565b600081519050919050565b600082825260208201905092915050565b6000612a8182612a5a565b612a8b8185612a65565b9350612a9b818560208601611c53565b612aa481611c86565b840191505092915050565b6000608082019050612ac46000830187611d87565b612ad16020830186611d87565b612ade6040830185611fbb565b8181036060830152612af08184612a76565b905095945050505050565b600081519050612b0a81611ba8565b92915050565b600060208284031215612b2657612b25611b72565b5b6000612b3484828501612afb565b91505092915050565b7f4e487b7100000000000000000000000000000000000000000000000000000000600052601260045260246000fdfea264697066735822122024bb1876fb2647aa58108a2408d2dad6202b7d21cdc4eb958d16d7dc44c0fd9764736f6c63430008090033",
  "linkReferences": {},
  "deployedLinkReferences": {}
}