{
  "_format": "hh-sol-artifact-1",
  "contractName": "NFT721",
  "sourceName": "contracts/NFT.sol",
  "abi": [
    {
      "inputs": [],
      "stateMutability": "nonpayable",
      "type": "constructor"
    },
    {
      "anonymous": false,
      "inputs": [
        {
          "indexed": true,
          "internalType": "address",
          "name": "owner",
          "type": "address"
        },
        {
          "indexed": true,
          "internalType": "address",
          "name": "approved",
          "type": "address"
        },
        {
          "indexed": true,
          "internalType": "uint256",
          "name": "tokenId",
          "type": "uint256"
        }
      ],
      "name": "Approval",
      "type": "event"
    },
    {
      "anonymous": false,
      "inputs": [
        {
          "indexed": true,
          "internalType": "address",
          "name": "owner",
          "type": "address"
        },
        {
          "indexed": true,
          "internalType": "address",
          "name": "operator",
          "type": "address"
        },
        {
          "indexed": false,
          "internalType": "bool",
          "name": "approved",
          "type": "bool"
        }
      ],
      "name": "ApprovalForAll",
      "type": "event"
    },
    {
      "anonymous": false,
      "inputs": [
        {
          "indexed": false,
          "internalType": "uint256",
          "name": "_fromTokenId",
          "type": "uint256"
        },
        {
          "indexed": false,
          "internalType": "uint256",
          "name": "_toTokenId",
          "type": "uint256"
        }
      ],
      "name": "BatchMetadataUpdate",
      "type": "event"
    },
    {
      "anonymous": false,
      "inputs": [
        {
          "indexed": false,
          "internalType": "uint256",
          "name": "_tokenId",
          "type": "uint256"
        }
      ],
      "name": "MetadataUpdate",
      "type": "event"
    },
    {
      "anonymous": false,
      "inputs": [
        {
          "indexed": true,
          "internalType": "address",
          "name": "to",
          "type": "address"
        },
        {
          "indexed": true,
          "internalType": "uint256",
          "name": "tokenId",
          "type": "uint256"
        },
        {
          "indexed": false,
          "internalType": "string",
          "name": "tokenURI",
          "type": "string"
        }
      ],
      "name": "Mint",
      "type": "event"
    },
    {
      "anonymous": false,
      "inputs": [
        {
          "indexed": true,
          "internalType": "address",
          "name": "previousOwner",
          "type": "address"
        },
        {
          "indexed": true,
          "internalType": "address",
          "name": "newOwner",
          "type": "address"
        }
      ],
      "name": "OwnershipTransferred",
      "type": "event"
    },
    {
      "anonymous": false,
      "inputs": [
        {
          "indexed": true,
          "internalType": "address",
          "name": "from",
          "type": "address"
        },
        {
          "indexed": true,
          "internalType": "address",
          "name": "to",
          "type": "address"
        },
        {
          "indexed": true,
          "internalType": "uint256",
          "name": "tokenId",
          "type": "uint256"
        }
      ],
      "name": "Transfer",
      "type": "event"
    },
    {
      "inputs": [
        {
          "internalType": "address",
          "name": "to",
          "type": "address"
        },
        {
          "internalType": "uint256",
          "name": "tokenId",
          "type": "uint256"
        }
      ],
      "name": "approve",
      "outputs": [],
      "stateMutability": "nonpayable",
      "type": "function"
    },
    {
      "inputs": [
        {
          "internalType": "address",
          "name": "owner",
          "type": "address"
        }
      ],
      "name": "balanceOf",
      "outputs": [
        {
          "internalType": "uint256",
          "name": "",
          "type": "uint256"
        }
      ],
      "stateMutability": "view",
      "type": "function"
    },
    {
      "inputs": [
        {
          "internalType": "uint256",
          "name": "tokenId",
          "type": "uint256"
        }
      ],
      "name": "getApproved",
      "outputs": [
        {
          "internalType": "address",
          "name": "",
          "type": "address"
        }
      ],
      "stateMutability": "view",
      "type": "function"
    },
    {
      "inputs": [
        {
          "internalType": "address",
          "name": "owner",
          "type": "address"
        },
        {
          "internalType": "address",
          "name": "operator",
          "type": "address"
        }
      ],
      "name": "isApprovedForAll",
      "outputs": [
        {
          "internalType": "bool",
          "name": "",
          "type": "bool"
        }
      ],
      "stateMutability": "view",
      "type": "function"
    },
    {
      "inputs": [
        {
          "internalType": "address",
          "name": "to",
          "type": "address"
        },
        {
          "internalType": "uint256",
          "name": "tokenId",
          "type": "uint256"
        },
        {
          "internalType": "string",
          "name": "tokenURI",
          "type": "string"
        }
      ],
      "name": "mint",
      "outputs": [],
      "stateMutability": "nonpayable",
      "type": "function"
    },
    {
      "inputs": [],
      "name": "name",
      "outputs": [
        {
          "internalType": "string",
          "name": "",
          "type": "string"
        }
      ],
      "stateMutability": "view",
      "type": "function"
    },
    {
      "inputs": [],
      "name": "owner",
      "outputs": [
        {
          "internalType": "address",
          "name": "",
          "type": "address"
        }
      ],
      "stateMutability": "view",
      "type": "function"
    },
    {
      "inputs": [
        {
          "internalType": "uint256",
          "name": "tokenId",
          "type": "uint256"
        }
      ],
      "name": "ownerOf",
      "outputs": [
        {
          "internalType": "address",
          "name": "",
          "type": "address"
        }
      ],
      "stateMutability": "view",
      "type": "function"
    },
    {
      "inputs": [],
      "name": "renounceOwnership",
      "outputs": [],
      "stateMutability": "nonpayable",
      "type": "function"
    },
    {
      "inputs": [
        {
          "internalType": "address",
          "name": "from",
          "type": "address"
        },
        {
          "internalType": "address",
          "name": "to",
          "type": "address"
        },
        {
          "internalType": "uint256",
          "name": "tokenId",
          "type": "uint256"
        }
      ],
      "name": "safeTransferFrom",
      "outputs": [],
      "stateMutability": "nonpayable",
      "type": "function"
    },
    {
      "inputs": [
        {
          "internalType": "address",
          "name": "from",
          "type": "address"
        },
        {
          "internalType": "address",
          "name": "to",
          "type": "address"
        },
        {
          "internalType": "uint256",
          "name": "tokenId",
          "type": "uint256"
        },
        {
          "internalType": "bytes",
          "name": "data",
          "type": "bytes"
        }
      ],
      "name": "safeTransferFrom",
      "outputs": [],
      "stateMutability": "nonpayable",
      "type": "function"
    },
    {
      "inputs": [
        {
          "internalType": "address",
          "name": "operator",
          "type": "address"
        },
        {
          "internalType": "bool",
          "name": "approved",
          "type": "bool"
        }
      ],
      "name": "setApprovalForAll",
      "outputs": [],
      "stateMutability": "nonpayable",
      "type": "function"
    },
    {
      "inputs": [
        {
          "internalType": "bytes4",
          "name": "interfaceId",
          "type": "bytes4"
        }
      ],
      "name": "supportsInterface",
      "outputs": [
        {
          "internalType": "bool",
          "name": "",
          "type": "bool"
        }
      ],
      "stateMutability": "view",
      "type": "function"
    },
    {
      "inputs": [],
      "name": "symbol",
      "outputs": [
        {
          "internalType": "string",
          "name": "",
          "type": "string"
        }
      ],
      "stateMutability": "view",
      "type": "function"
    },
    {
      "inputs": [
        {
          "internalType": "uint256",
          "name": "tokenId",
          "type": "uint256"
        }
      ],
      "name": "tokenURI",
      "outputs": [
        {
          "internalType": "string",
          "name": "",
          "type": "string"
        }
      ],
      "stateMutability": "view",
      "type": "function"
    },
    {
      "inputs": [
        {
          "internalType": "address",
          "name": "from",
          "type": "address"
        },
        {
          "internalType": "address",
          "name": "to",
          "type": "address"
        },
        {
          "internalType": "uint256",
          "name": "tokenId",
          "type": "uint256"
        }
      ],
      "name": "transferFrom",
      "outputs": [],
      "stateMutability": "nonpayable",
      "type": "function"
    },
    {
      "inputs": [
        {
          "internalType": "address",
          "name": "newOwner",
          "type": "address"
        }
      ],
      "name": "transferOwnership",
      "outputs": [],
      "stateMutability": "nonpayable",
      "type": "function"
    }
  ],
  "bytecode": "0x60806040523480156200001157600080fd5b506040518060400160405280600581526020017f4d794e46540000000000000000000000000000000000000000000000000000008152506040518060400160405280600381526020017f4e46540000000000000000000000000000000000000000000000000000000000815250816000908051906020019062000096929190620001a6565b508060019080519060200190620000af929190620001a6565b505050620000d2620000c6620000d860201b60201c565b620000e060201b60201c565b620002bb565b600033905090565b6000600760009054906101000a900473ffffffffffffffffffffffffffffffffffffffff16905081600760006101000a81548173ffffffffffffffffffffffffffffffffffffffff021916908373ffffffffffffffffffffffffffffffffffffffff1602179055508173ffffffffffffffffffffffffffffffffffffffff168173ffffffffffffffffffffffffffffffffffffffff167f8be0079c531659141344cd1fd0a4f28419497f9722a3daafe3b4186f6b6457e060405160405180910390a35050565b828054620001b49062000285565b90600052602060002090601f016020900481019282620001d8576000855562000224565b82601f10620001f357805160ff191683800117855562000224565b8280016001018555821562000224579182015b828111156200022357825182559160200191906001019062000206565b5b50905062000233919062000237565b5090565b5b808211156200025257600081600090555060010162000238565b5090565b7f4e487b7100000000000000000000000000000000000000000000000000000000600052602260045260246000fd5b600060028204905060018216806200029e57607f821691505b60208210811415620002b557620002b462000256565b5b50919050565b612cb380620002cb6000396000f3fe608060405234801561001057600080fd5b506004361061010b5760003560e01c8063715018a6116100a2578063b88d4fde11610071578063b88d4fde146102a4578063c87b56dd146102c0578063d3fc9864146102f0578063e985e9c51461030c578063f2fde38b1461033c5761010b565b8063715018a6146102425780638da5cb5b1461024c57806395d89b411461026a578063a22cb465146102885761010b565b806323b872dd116100de57806323b872dd146101aa57806342842e0e146101c65780636352211e146101e257806370a08231146102125761010b565b806301ffc9a71461011057806306fdde0314610140578063081812fc1461015e578063095ea7b31461018e575b600080fd5b61012a60048036038101906101259190611d05565b610358565b6040516101379190611d4d565b60405180910390f35b6101486103b9565b6040516101559190611e01565b60405180910390f35b61017860048036038101906101739190611e59565b61044b565b6040516101859190611ec7565b60405180910390f35b6101a860048036038101906101a39190611f0e565b610491565b005b6101c460048036038101906101bf9190611f4e565b6105a9565b005b6101e060048036038101906101db9190611f4e565b610609565b005b6101fc60048036038101906101f79190611e59565b610629565b6040516102099190611ec7565b60405180910390f35b61022c60048036038101906102279190611fa1565b6106b0565b6040516102399190611fdd565b60405180910390f35b61024a610768565b005b61025461077c565b6040516102619190611ec7565b60405180910390f35b6102726107a6565b60405161027f9190611e01565b60405180910390f35b6102a2600480360381019061029d9190612024565b610838565b005b6102be60048036038101906102b99190612199565b61084e565b005b6102da60048036038101906102d59190611e59565b6108b0565b6040516102e79190611e01565b60405180910390f35b61030a600480360381019061030591906122bd565b6109c3565b005b6103266004803603810190610321919061232c565b610a33565b6040516103339190611d4d565b60405180910390f35b61035660048036038101906103519190611fa1565b610ac7565b005b6000634906490660e01b7bffffffffffffffffffffffffffffffffffffffffffffffffffffffff1916827bffffffffffffffffffffffffffffffffffffffffffffffffffffffff191614806103b257506103b182610b4b565b5b9050919050565b6060600080546103c89061239b565b80601f01602080910402602001604051908101604052809291908181526020018280546103f49061239b565b80156104415780601f1061041657610100808354040283529160200191610441565b820191906000526020600020905b81548152906001019060200180831161042457829003601f168201915b5050505050905090565b600061045682610c2d565b6004600083815260200190815260200160002060009054906101000a900473ffffffffffffffffffffffffffffffffffffffff169050919050565b600061049c82610629565b90508073ffffffffffffffffffffffffffffffffffffffff168373ffffffffffffffffffffffffffffffffffffffff16141561050d576040517f08c379a00000000000000000000000000000000000000000000000000000000081526004016105049061243f565b60405180910390fd5b8073ffffffffffffffffffffffffffffffffffffffff1661052c610c78565b73ffffffffffffffffffffffffffffffffffffffff16148061055b575061055a81610555610c78565b610a33565b5b61059a576040517f08c379a0000000000000000000000000000000000000000000000000000000008152600401610591906124d1565b60405180910390fd5b6105a48383610c80565b505050565b6105ba6105b4610c78565b82610d39565b6105f9576040517f08c379a00000000000000000000000000000000000000000000000000000000081526004016105f090612563565b60405180910390fd5b610604838383610dce565b505050565b6106248383836040518060200160405280600081525061084e565b505050565b600080610635836110c8565b9050600073ffffffffffffffffffffffffffffffffffffffff168173ffffffffffffffffffffffffffffffffffffffff1614156106a7576040517f08c379a000000000000000000000000000000000000000000000000000000000815260040161069e906125cf565b60405180910390fd5b80915050919050565b60008073ffffffffffffffffffffffffffffffffffffffff168273ffffffffffffffffffffffffffffffffffffffff161415610721576040517f08c379a000000000000000000000000000000000000000000000000000000000815260040161071890612661565b60405180910390fd5b600360008373ffffffffffffffffffffffffffffffffffffffff1673ffffffffffffffffffffffffffffffffffffffff168152602001908152602001600020549050919050565b610770611105565b61077a6000611183565b565b6000600760009054906101000a900473ffffffffffffffffffffffffffffffffffffffff16905090565b6060600180546107b59061239b565b80601f01602080910402602001604051908101604052809291908181526020018280546107e19061239b565b801561082e5780601f106108035761010080835404028352916020019161082e565b820191906000526020600020905b81548152906001019060200180831161081157829003601f168201915b5050505050905090565b61084a610843610c78565b8383611249565b5050565b61085f610859610c78565b83610d39565b61089e576040517f08c379a000000000000000000000000000000000000000000000000000000000815260040161089590612563565b60405180910390fd5b6108aa848484846113b6565b50505050565b60606108bb82610c2d565b60006006600084815260200190815260200160002080546108db9061239b565b80601f01602080910402602001604051908101604052809291908181526020018280546109079061239b565b80156109545780601f1061092957610100808354040283529160200191610954565b820191906000526020600020905b81548152906001019060200180831161093757829003601f168201915b505050505090506000610965611412565b905060008151141561097b5781925050506109be565b6000825111156109b05780826040516020016109989291906126bd565b604051602081830303815290604052925050506109be565b6109b984611429565b925050505b919050565b6109cb611105565b6109d58383611491565b6109df82826116af565b818373ffffffffffffffffffffffffffffffffffffffff167f85a66b9141978db9980f7e0ce3b468cebf4f7999f32b23091c5c03e798b1ba7a83604051610a269190611e01565b60405180910390a3505050565b6000600560008473ffffffffffffffffffffffffffffffffffffffff1673ffffffffffffffffffffffffffffffffffffffff16815260200190815260200160002060008373ffffffffffffffffffffffffffffffffffffffff1673ffffffffffffffffffffffffffffffffffffffff16815260200190815260200160002060009054906101000a900460ff16905092915050565b610acf611105565b600073ffffffffffffffffffffffffffffffffffffffff168173ffffffffffffffffffffffffffffffffffffffff161415610b3f576040517f08c379a0000000000000000000000000000000000000000000000000000000008152600401610b3690612753565b60405180910390fd5b610b4881611183565b50565b60007f80ac58cd000000000000000000000000000000000000000000000000000000007bffffffffffffffffffffffffffffffffffffffffffffffffffffffff1916827bffffffffffffffffffffffffffffffffffffffffffffffffffffffff19161480610c1657507f5b5e139f000000000000000000000000000000000000000000000000000000007bffffffffffffffffffffffffffffffffffffffffffffffffffffffff1916827bffffffffffffffffffffffffffffffffffffffffffffffffffffffff1916145b80610c265750610c258261175a565b5b9050919050565b610c36816117c4565b610c75576040517f08c379a0000000000000000000000000000000000000000000000000000000008152600401610c6c906125cf565b60405180910390fd5b50565b600033905090565b816004600083815260200190815260200160002060006101000a81548173ffffffffffffffffffffffffffffffffffffffff021916908373ffffffffffffffffffffffffffffffffffffffff160217905550808273ffffffffffffffffffffffffffffffffffffffff16610cf383610629565b73ffffffffffffffffffffffffffffffffffffffff167f8c5be1e5ebec7d5bd14f71427d1e84f3dd0314c0f7b2291e5b200ac8c7c3b92560405160405180910390a45050565b600080610d4583610629565b90508073ffffffffffffffffffffffffffffffffffffffff168473ffffffffffffffffffffffffffffffffffffffff161480610d875750610d868185610a33565b5b80610dc557508373ffffffffffffffffffffffffffffffffffffffff16610dad8461044b565b73ffffffffffffffffffffffffffffffffffffffff16145b91505092915050565b8273ffffffffffffffffffffffffffffffffffffffff16610dee82610629565b73ffffffffffffffffffffffffffffffffffffffff1614610e44576040517f08c379a0000000000000000000000000000000000000000000000000000000008152600401610e3b906127e5565b60405180910390fd5b600073ffffffffffffffffffffffffffffffffffffffff168273ffffffffffffffffffffffffffffffffffffffff161415610eb4576040517f08c379a0000000000000000000000000000000000000000000000000000000008152600401610eab90612877565b60405180910390fd5b610ec18383836001611805565b8273ffffffffffffffffffffffffffffffffffffffff16610ee182610629565b73ffffffffffffffffffffffffffffffffffffffff1614610f37576040517f08c379a0000000000000000000000000000000000000000000000000000000008152600401610f2e906127e5565b60405180910390fd5b6004600082815260200190815260200160002060006101000a81549073ffffffffffffffffffffffffffffffffffffffff02191690556001600360008573ffffffffffffffffffffffffffffffffffffffff1673ffffffffffffffffffffffffffffffffffffffff168152602001908152602001600020600082825403925050819055506001600360008473ffffffffffffffffffffffffffffffffffffffff1673ffffffffffffffffffffffffffffffffffffffff16815260200190815260200160002060008282540192505081905550816002600083815260200190815260200160002060006101000a81548173ffffffffffffffffffffffffffffffffffffffff021916908373ffffffffffffffffffffffffffffffffffffffff160217905550808273ffffffffffffffffffffffffffffffffffffffff168473ffffffffffffffffffffffffffffffffffffffff167fddf252ad1be2c89b69c2b068fc378daa952ba7f163c4a11628f55a4df523b3ef60405160405180910390a46110c3838383600161180b565b505050565b60006002600083815260200190815260200160002060009054906101000a900473ffffffffffffffffffffffffffffffffffffffff169050919050565b61110d610c78565b73ffffffffffffffffffffffffffffffffffffffff1661112b61077c565b73ffffffffffffffffffffffffffffffffffffffff1614611181576040517f08c379a0000000000000000000000000000000000000000000000000000000008152600401611178906128e3565b60405180910390fd5b565b6000600760009054906101000a900473ffffffffffffffffffffffffffffffffffffffff16905081600760006101000a81548173ffffffffffffffffffffffffffffffffffffffff021916908373ffffffffffffffffffffffffffffffffffffffff1602179055508173ffffffffffffffffffffffffffffffffffffffff168173ffffffffffffffffffffffffffffffffffffffff167f8be0079c531659141344cd1fd0a4f28419497f9722a3daafe3b4186f6b6457e060405160405180910390a35050565b8173ffffffffffffffffffffffffffffffffffffffff168373ffffffffffffffffffffffffffffffffffffffff1614156112b8576040517f08c379a00000000000000000000000000000000000000000000000000000000081526004016112af9061294f565b60405180910390fd5b80600560008573ffffffffffffffffffffffffffffffffffffffff1673ffffffffffffffffffffffffffffffffffffffff16815260200190815260200160002060008473ffffffffffffffffffffffffffffffffffffffff1673ffffffffffffffffffffffffffffffffffffffff16815260200190815260200160002060006101000a81548160ff0219169083151502179055508173ffffffffffffffffffffffffffffffffffffffff168373ffffffffffffffffffffffffffffffffffffffff167f17307eab39ab6107e8899845ad3d59bd9653f200f220920489ca2b5937696c31836040516113a99190611d4d565b60405180910390a3505050565b6113c1848484610dce565b6113cd84848484611811565b61140c576040517f08c379a0000000000000000000000000000000000000000000000000000000008152600401611403906129e1565b60405180910390fd5b50505050565b606060405180602001604052806000815250905090565b606061143482610c2d565b600061143e611412565b9050600081511161145e5760405180602001604052806000815250611489565b80611468846119a8565b6040516020016114799291906126bd565b6040516020818303038152906040525b915050919050565b600073ffffffffffffffffffffffffffffffffffffffff168273ffffffffffffffffffffffffffffffffffffffff161415611501576040517f08c379a00000000000000000000000000000000000000000000000000000000081526004016114f890612a4d565b60405180910390fd5b61150a816117c4565b1561154a576040517f08c379a000000000000000000000000000000000000000000000000000000000815260040161154190612ab9565b60405180910390fd5b611558600083836001611805565b611561816117c4565b156115a1576040517f08c379a000000000000000000000000000000000000000000000000000000000815260040161159890612ab9565b60405180910390fd5b6001600360008473ffffffffffffffffffffffffffffffffffffffff1673ffffffffffffffffffffffffffffffffffffffff16815260200190815260200160002060008282540192505081905550816002600083815260200190815260200160002060006101000a81548173ffffffffffffffffffffffffffffffffffffffff021916908373ffffffffffffffffffffffffffffffffffffffff160217905550808273ffffffffffffffffffffffffffffffffffffffff16600073ffffffffffffffffffffffffffffffffffffffff167fddf252ad1be2c89b69c2b068fc378daa952ba7f163c4a11628f55a4df523b3ef60405160405180910390a46116ab60008383600161180b565b5050565b6116b8826117c4565b6116f7576040517f08c379a00000000000000000000000000000000000000000000000000000000081526004016116ee90612b4b565b60405180910390fd5b8060066000848152602001908152602001600020908051906020019061171e929190611bf6565b507ff8e1a15aba9398e019f0b49df1a4fde98ee17ae345cb5f6b5e2c27f5033e8ce78260405161174e9190611fdd565b60405180910390a15050565b60007f01ffc9a7000000000000000000000000000000000000000000000000000000007bffffffffffffffffffffffffffffffffffffffffffffffffffffffff1916827bffffffffffffffffffffffffffffffffffffffffffffffffffffffff1916149050919050565b60008073ffffffffffffffffffffffffffffffffffffffff166117e6836110c8565b73ffffffffffffffffffffffffffffffffffffffff1614159050919050565b50505050565b50505050565b60006118328473ffffffffffffffffffffffffffffffffffffffff16611a80565b1561199b578373ffffffffffffffffffffffffffffffffffffffff1663150b7a0261185b610c78565b8786866040518563ffffffff1660e01b815260040161187d9493929190612bc0565b602060405180830381600087803b15801561189757600080fd5b505af19250505080156118c857506040513d601f19601f820116820180604052508101906118c59190612c21565b60015b61194b573d80600081146118f8576040519150601f19603f3d011682016040523d82523d6000602084013e6118fd565b606091505b50600081511415611943576040517f08c379a000000000000000000000000000000000000000000000000000000000815260040161193a906129e1565b60405180910390fd5b805181602001fd5b63150b7a0260e01b7bffffffffffffffffffffffffffffffffffffffffffffffffffffffff1916817bffffffffffffffffffffffffffffffffffffffffffffffffffffffff1916149150506119a0565b600190505b949350505050565b6060600060016119b784611aa3565b01905060008167ffffffffffffffff8111156119d6576119d561206e565b5b6040519080825280601f01601f191660200182016040528015611a085781602001600182028036833780820191505090505b509050600082602001820190505b600115611a75578080600190039150507f3031323334353637383961626364656600000000000000000000000000000000600a86061a8153600a8581611a5f57611a5e612c4e565b5b0494506000851415611a7057611a75565b611a16565b819350505050919050565b6000808273ffffffffffffffffffffffffffffffffffffffff163b119050919050565b600080600090507a184f03e93ff9f4daa797ed6e38ed64bf6a1f0100000000000000008310611b01577a184f03e93ff9f4daa797ed6e38ed64bf6a1f0100000000000000008381611af757611af6612c4e565b5b0492506040810190505b6d04ee2d6d415b85acef81000000008310611b3e576d04ee2d6d415b85acef81000000008381611b3457611b33612c4e565b5b0492506020810190505b662386f26fc100008310611b6d57662386f26fc100008381611b6357611b62612c4e565b5b0492506010810190505b6305f5e1008310611b96576305f5e1008381611b8c57611b8b612c4e565b5b0492506008810190505b6127108310611bbb576127108381611bb157611bb0612c4e565b5b0492506004810190505b60648310611bde5760648381611bd457611bd3612c4e565b5b0492506002810190505b600a8310611bed576001810190505b80915050919050565b828054611c029061239b565b90600052602060002090601f016020900481019282611c245760008555611c6b565b82601f10611c3d57805160ff1916838001178555611c6b565b82800160010185558215611c6b579182015b82811115611c6a578251825591602001919060010190611c4f565b5b509050611c789190611c7c565b5090565b5b80821115611c95576000816000905550600101611c7d565b5090565b6000604051905090565b600080fd5b600080fd5b60007fffffffff0000000000000000000000000000000000000000000000000000000082169050919050565b611ce281611cad565b8114611ced57600080fd5b50565b600081359050611cff81611cd9565b92915050565b600060208284031215611d1b57611d1a611ca3565b5b6000611d2984828501611cf0565b91505092915050565b60008115159050919050565b611d4781611d32565b82525050565b6000602082019050611d626000830184611d3e565b92915050565b600081519050919050565b600082825260208201905092915050565b60005b83811015611da2578082015181840152602081019050611d87565b83811115611db1576000848401525b50505050565b6000601f19601f8301169050919050565b6000611dd382611d68565b611ddd8185611d73565b9350611ded818560208601611d84565b611df681611db7565b840191505092915050565b60006020820190508181036000830152611e1b8184611dc8565b905092915050565b6000819050919050565b611e3681611e23565b8114611e4157600080fd5b50565b600081359050611e5381611e2d565b92915050565b600060208284031215611e6f57611e6e611ca3565b5b6000611e7d84828501611e44565b91505092915050565b600073ffffffffffffffffffffffffffffffffffffffff82169050919050565b6000611eb182611e86565b9050919050565b611ec181611ea6565b82525050565b6000602082019050611edc6000830184611eb8565b92915050565b611eeb81611ea6565b8114611ef657600080fd5b50565b600081359050611f0881611ee2565b92915050565b60008060408385031215611f2557611f24611ca3565b5b6000611f3385828601611ef9565b9250506020611f4485828601611e44565b9150509250929050565b600080600060608486031215611f6757611f66611ca3565b5b6000611f7586828701611ef9565b9350506020611f8686828701611ef9565b9250506040611f9786828701611e44565b9150509250925092565b600060208284031215611fb757611fb6611ca3565b5b6000611fc584828501611ef9565b91505092915050565b611fd781611e23565b82525050565b6000602082019050611ff26000830184611fce565b92915050565b61200181611d32565b811461200c57600080fd5b50565b60008135905061201e81611ff8565b92915050565b6000806040838503121561203b5761203a611ca3565b5b600061204985828601611ef9565b925050602061205a8582860161200f565b9150509250929050565b600080fd5b600080fd5b7f4e487b7100000000000000000000000000000000000000000000000000000000600052604160045260246000fd5b6120a682611db7565b810181811067ffffffffffffffff821117156120c5576120c461206e565b5b80604052505050565b60006120d8611c99565b90506120e4828261209d565b919050565b600067ffffffffffffffff8211156121045761210361206e565b5b61210d82611db7565b9050602081019050919050565b82818337600083830152505050565b600061213c612137846120e9565b6120ce565b90508281526020810184848401111561215857612157612069565b5b61216384828561211a565b509392505050565b600082601f8301126121805761217f612064565b5b8135612190848260208601612129565b91505092915050565b600080600080608085870312156121b3576121b2611ca3565b5b60006121c187828801611ef9565b94505060206121d287828801611ef9565b93505060406121e387828801611e44565b925050606085013567ffffffffffffffff81111561220457612203611ca8565b5b6122108782880161216b565b91505092959194509250565b600067ffffffffffffffff8211156122375761223661206e565b5b61224082611db7565b9050602081019050919050565b600061226061225b8461221c565b6120ce565b90508281526020810184848401111561227c5761227b612069565b5b61228784828561211a565b509392505050565b600082601f8301126122a4576122a3612064565b5b81356122b484826020860161224d565b91505092915050565b6000806000606084860312156122d6576122d5611ca3565b5b60006122e486828701611ef9565b93505060206122f586828701611e44565b925050604084013567ffffffffffffffff81111561231657612315611ca8565b5b6123228682870161228f565b9150509250925092565b6000806040838503121561234357612342611ca3565b5b600061235185828601611ef9565b925050602061236285828601611ef9565b9150509250929050565b7f4e487b7100000000000000000000000000000000000000000000000000000000600052602260045260246000fd5b600060028204905060018216806123b357607f821691505b602082108114156123c7576123c661236c565b5b50919050565b7f4552433732313a20617070726f76616c20746f2063757272656e74206f776e6560008201527f7200000000000000000000000000000000000000000000000000000000000000602082015250565b6000612429602183611d73565b9150612434826123cd565b604082019050919050565b600060208201905081810360008301526124588161241c565b9050919050565b7f4552433732313a20617070726f76652063616c6c6572206973206e6f7420746f60008201527f6b656e206f776e6572206f7220617070726f76656420666f7220616c6c000000602082015250565b60006124bb603d83611d73565b91506124c68261245f565b604082019050919050565b600060208201905081810360008301526124ea816124ae565b9050919050565b7f4552433732313a2063616c6c6572206973206e6f7420746f6b656e206f776e6560008201527f72206f7220617070726f76656400000000000000000000000000000000000000602082015250565b600061254d602d83611d73565b9150612558826124f1565b604082019050919050565b6000602082019050818103600083015261257c81612540565b9050919050565b7f4552433732313a20696e76616c696420746f6b656e2049440000000000000000600082015250565b60006125b9601883611d73565b91506125c482612583565b602082019050919050565b600060208201905081810360008301526125e8816125ac565b9050919050565b7f4552433732313a2061646472657373207a65726f206973206e6f74206120766160008201527f6c6964206f776e65720000000000000000000000000000000000000000000000602082015250565b600061264b602983611d73565b9150612656826125ef565b604082019050919050565b6000602082019050818103600083015261267a8161263e565b9050919050565b600081905092915050565b600061269782611d68565b6126a18185612681565b93506126b1818560208601611d84565b80840191505092915050565b60006126c9828561268c565b91506126d5828461268c565b91508190509392505050565b7f4f776e61626c653a206e6577206f776e657220697320746865207a65726f206160008201527f6464726573730000000000000000000000000000000000000000000000000000602082015250565b600061273d602683611d73565b9150612748826126e1565b604082019050919050565b6000602082019050818103600083015261276c81612730565b9050919050565b7f4552433732313a207472616e736665722066726f6d20696e636f72726563742060008201527f6f776e6572000000000000000000000000000000000000000000000000000000602082015250565b60006127cf602583611d73565b91506127da82612773565b604082019050919050565b600060208201905081810360008301526127fe816127c2565b9050919050565b7f4552433732313a207472616e7366657220746f20746865207a65726f2061646460008201527f7265737300000000000000000000000000000000000000000000000000000000602082015250565b6000612861602483611d73565b915061286c82612805565b604082019050919050565b6000602082019050818103600083015261289081612854565b9050919050565b7f4f776e61626c653a2063616c6c6572206973206e6f7420746865206f776e6572600082015250565b60006128cd602083611d73565b91506128d882612897565b602082019050919050565b600060208201905081810360008301526128fc816128c0565b9050919050565b7f4552433732313a20617070726f766520746f2063616c6c657200000000000000600082015250565b6000612939601983611d73565b915061294482612903565b602082019050919050565b600060208201905081810360008301526129688161292c565b9050919050565b7f4552433732313a207472616e7366657220746f206e6f6e20455243373231526560008201527f63656976657220696d706c656d656e7465720000000000000000000000000000602082015250565b60006129cb603283611d73565b91506129d68261296f565b604082019050919050565b600060208201905081810360008301526129fa816129be565b9050919050565b7f4552433732313a206d696e7420746f20746865207a65726f2061646472657373600082015250565b6000612a37602083611d73565b9150612a4282612a01565b602082019050919050565b60006020820190508181036000830152612a6681612a2a565b9050919050565b7f4552433732313a20746f6b656e20616c7265616479206d696e74656400000000600082015250565b6000612aa3601c83611d73565b9150612aae82612a6d565b602082019050919050565b60006020820190508181036000830152612ad281612a96565b9050919050565b7f45524337323155524953746f726167653a2055524920736574206f66206e6f6e60008201527f6578697374656e7420746f6b656e000000000000000000000000000000000000602082015250565b6000612b35602e83611d73565b9150612b4082612ad9565b604082019050919050565b60006020820190508181036000830152612b6481612b28565b9050919050565b600081519050919050565b600082825260208201905092915050565b6000612b9282612b6b565b612b9c8185612b76565b9350612bac818560208601611d84565b612bb581611db7565b840191505092915050565b6000608082019050612bd56000830187611eb8565b612be26020830186611eb8565b612bef6040830185611fce565b8181036060830152612c018184612b87565b905095945050505050565b600081519050612c1b81611cd9565b92915050565b600060208284031215612c3757612c36611ca3565b5b6000612c4584828501612c0c565b91505092915050565b7f4e487b7100000000000000000000000000000000000000000000000000000000600052601260045260246000fdfea26469706673582212203584b871f21ff6a1cdba76d7b1695be9e3606706abb25543d42952b62a24ca9e64736f6c63430008090033",
  "linkReferences": {},
  "deployedLinkReferences": {}
}