{
  "_format": "hh-sol-artifact-1",
  "contractName": "ProofOfDonation",
  "sourceName": "contracts/ProofOfDonation.sol",
  "abi": [
    {
      "inputs": [],
      "stateMutability": "nonpayable",
      "type": "constructor"
    },
    {
      "anonymous": false,
      "inputs": [
        {
          "indexed": true,
          "internalType": "address",
          "name": "owner",
          "type": "address"
        },
        {
          "indexed": true,
          "internalType": "address",
          "name": "approved",
          "type": "address"
        },
        {
          "indexed": true,
          "internalType": "uint256",
          "name": "tokenId",
          "type": "uint256"
        }
      ],
      "name": "Approval",
      "type": "event"
    },
    {
      "anonymous": false,
      "inputs": [
        {
          "indexed": true,
          "internalType": "address",
          "name": "owner",
          "type": "address"
        },
        {
          "indexed": true,
          "internalType": "address",
          "name": "operator",
          "type": "address"
        },
        {
          "indexed": false,
          "internalType": "bool",
          "name": "approved",
          "type": "bool"
        }
      ],
      "name": "ApprovalForAll",
      "type": "event"
    },
    {
      "anonymous": false,
      "inputs": [
        {
          "indexed": true,
          "internalType": "address",
          "name": "authorizer",
          "type": "address"
        }
      ],
      "name": "AuthorizerAdded",
      "type": "event"
    },
    {
      "anonymous": false,
      "inputs": [
        {
          "indexed": true,
          "internalType": "address",
          "name": "authorizer",
          "type": "address"
        }
      ],
      "name": "AuthorizerRemoved",
      "type": "event"
    },
    {
      "anonymous": false,
      "inputs": [
        {
          "indexed": false,
          "internalType": "uint256",
          "name": "_fromTokenId",
          "type": "uint256"
        },
        {
          "indexed": false,
          "internalType": "uint256",
          "name": "_toTokenId",
          "type": "uint256"
        }
      ],
      "name": "BatchMetadataUpdate",
      "type": "event"
    },
    {
      "anonymous": false,
      "inputs": [
        {
          "indexed": false,
          "internalType": "uint256",
          "name": "sqm",
          "type": "uint256"
        },
        {
          "indexed": true,
          "internalType": "address",
          "name": "to",
          "type": "address"
        },
        {
          "indexed": true,
          "internalType": "address",
          "name": "authorizer",
          "type": "address"
        },
        {
          "indexed": false,
          "internalType": "bool",
          "name": "paid",
          "type": "bool"
        }
      ],
      "name": "DonationLogged",
      "type": "event"
    },
    {
      "anonymous": false,
      "inputs": [
        {
          "indexed": false,
          "internalType": "uint256",
          "name": "_tokenId",
          "type": "uint256"
        }
      ],
      "name": "MetadataUpdate",
      "type": "event"
    },
    {
      "anonymous": false,
      "inputs": [
        {
          "indexed": true,
          "internalType": "address",
          "name": "previousOwner",
          "type": "address"
        },
        {
          "indexed": true,
          "internalType": "address",
          "name": "newOwner",
          "type": "address"
        }
      ],
      "name": "OwnershipTransferred",
      "type": "event"
    },
    {
      "anonymous": false,
      "inputs": [
        {
          "indexed": true,
          "internalType": "address",
          "name": "from",
          "type": "address"
        },
        {
          "indexed": true,
          "internalType": "address",
          "name": "to",
          "type": "address"
        },
        {
          "indexed": true,
          "internalType": "uint256",
          "name": "tokenId",
          "type": "uint256"
        }
      ],
      "name": "Transfer",
      "type": "event"
    },
    {
      "inputs": [
        {
          "internalType": "address",
          "name": "authorizer",
          "type": "address"
        }
      ],
      "name": "addAuthorizer",
      "outputs": [],
      "stateMutability": "nonpayable",
      "type": "function"
    },
    {
      "inputs": [
        {
          "internalType": "address",
          "name": "to",
          "type": "address"
        },
        {
          "internalType": "uint256",
          "name": "tokenId",
          "type": "uint256"
        }
      ],
      "name": "approve",
      "outputs": [],
      "stateMutability": "nonpayable",
      "type": "function"
    },
    {
      "inputs": [
        {
          "internalType": "address",
          "name": "owner",
          "type": "address"
        }
      ],
      "name": "balanceOf",
      "outputs": [
        {
          "internalType": "uint256",
          "name": "",
          "type": "uint256"
        }
      ],
      "stateMutability": "view",
      "type": "function"
    },
    {
      "inputs": [
        {
          "internalType": "bytes",
          "name": "signature",
          "type": "bytes"
        },
        {
          "internalType": "address",
          "name": "to",
          "type": "address"
        },
        {
          "internalType": "uint256",
          "name": "sqm",
          "type": "uint256"
        },
        {
          "internalType": "bytes32",
          "name": "donationId",
          "type": "bytes32"
        },
        {
          "internalType": "string",
          "name": "tokenURI",
          "type": "string"
        }
      ],
      "name": "donate",
      "outputs": [],
      "stateMutability": "nonpayable",
      "type": "function"
    },
    {
      "inputs": [],
      "name": "getAllDonations",
      "outputs": [
        {
          "components": [
            {
              "internalType": "uint256",
              "name": "sqm",
              "type": "uint256"
            },
            {
              "internalType": "address",
              "name": "donator",
              "type": "address"
            },
            {
              "internalType": "address",
              "name": "authorizer",
              "type": "address"
            },
            {
              "internalType": "bool",
              "name": "paid",
              "type": "bool"
            }
          ],
          "internalType": "struct ProofOfDonation.DonationStruct[]",
          "name": "",
          "type": "tuple[]"
        }
      ],
      "stateMutability": "view",
      "type": "function"
    },
    {
      "inputs": [
        {
          "internalType": "uint256",
          "name": "tokenId",
          "type": "uint256"
        }
      ],
      "name": "getApproved",
      "outputs": [
        {
          "internalType": "address",
          "name": "",
          "type": "address"
        }
      ],
      "stateMutability": "view",
      "type": "function"
    },
    {
      "inputs": [
        {
          "internalType": "address",
          "name": "owner",
          "type": "address"
        },
        {
          "internalType": "address",
          "name": "operator",
          "type": "address"
        }
      ],
      "name": "isApprovedForAll",
      "outputs": [
        {
          "internalType": "bool",
          "name": "",
          "type": "bool"
        }
      ],
      "stateMutability": "view",
      "type": "function"
    },
    {
      "inputs": [
        {
          "internalType": "address",
          "name": "",
          "type": "address"
        }
      ],
      "name": "mintAuthorizer",
      "outputs": [
        {
          "internalType": "bool",
          "name": "",
          "type": "bool"
        }
      ],
      "stateMutability": "view",
      "type": "function"
    },
    {
      "inputs": [],
      "name": "name",
      "outputs": [
        {
          "internalType": "string",
          "name": "",
          "type": "string"
        }
      ],
      "stateMutability": "view",
      "type": "function"
    },
    {
      "inputs": [],
      "name": "owner",
      "outputs": [
        {
          "internalType": "address",
          "name": "",
          "type": "address"
        }
      ],
      "stateMutability": "view",
      "type": "function"
    },
    {
      "inputs": [
        {
          "internalType": "uint256",
          "name": "tokenId",
          "type": "uint256"
        }
      ],
      "name": "ownerOf",
      "outputs": [
        {
          "internalType": "address",
          "name": "",
          "type": "address"
        }
      ],
      "stateMutability": "view",
      "type": "function"
    },
    {
      "inputs": [
        {
          "internalType": "address",
          "name": "authorizer",
          "type": "address"
        }
      ],
      "name": "removeAuthorizer",
      "outputs": [],
      "stateMutability": "nonpayable",
      "type": "function"
    },
    {
      "inputs": [],
      "name": "renounceOwnership",
      "outputs": [],
      "stateMutability": "nonpayable",
      "type": "function"
    },
    {
      "inputs": [
        {
          "internalType": "address",
          "name": "from",
          "type": "address"
        },
        {
          "internalType": "address",
          "name": "to",
          "type": "address"
        },
        {
          "internalType": "uint256",
          "name": "tokenId",
          "type": "uint256"
        }
      ],
      "name": "safeTransferFrom",
      "outputs": [],
      "stateMutability": "nonpayable",
      "type": "function"
    },
    {
      "inputs": [
        {
          "internalType": "address",
          "name": "from",
          "type": "address"
        },
        {
          "internalType": "address",
          "name": "to",
          "type": "address"
        },
        {
          "internalType": "uint256",
          "name": "tokenId",
          "type": "uint256"
        },
        {
          "internalType": "bytes",
          "name": "data",
          "type": "bytes"
        }
      ],
      "name": "safeTransferFrom",
      "outputs": [],
      "stateMutability": "nonpayable",
      "type": "function"
    },
    {
      "inputs": [
        {
          "internalType": "address",
          "name": "operator",
          "type": "address"
        },
        {
          "internalType": "bool",
          "name": "approved",
          "type": "bool"
        }
      ],
      "name": "setApprovalForAll",
      "outputs": [],
      "stateMutability": "nonpayable",
      "type": "function"
    },
    {
      "inputs": [
        {
          "internalType": "bytes4",
          "name": "interfaceId",
          "type": "bytes4"
        }
      ],
      "name": "supportsInterface",
      "outputs": [
        {
          "internalType": "bool",
          "name": "",
          "type": "bool"
        }
      ],
      "stateMutability": "view",
      "type": "function"
    },
    {
      "inputs": [],
      "name": "symbol",
      "outputs": [
        {
          "internalType": "string",
          "name": "",
          "type": "string"
        }
      ],
      "stateMutability": "view",
      "type": "function"
    },
    {
      "inputs": [
        {
          "internalType": "uint256",
          "name": "tokenId",
          "type": "uint256"
        }
      ],
      "name": "tokenURI",
      "outputs": [
        {
          "internalType": "string",
          "name": "",
          "type": "string"
        }
      ],
      "stateMutability": "view",
      "type": "function"
    },
    {
      "inputs": [
        {
          "internalType": "address",
          "name": "from",
          "type": "address"
        },
        {
          "internalType": "address",
          "name": "to",
          "type": "address"
        },
        {
          "internalType": "uint256",
          "name": "tokenId",
          "type": "uint256"
        }
      ],
      "name": "transferFrom",
      "outputs": [],
      "stateMutability": "nonpayable",
      "type": "function"
    },
    {
      "inputs": [
        {
          "internalType": "address",
          "name": "newOwner",
          "type": "address"
        }
      ],
      "name": "transferOwnership",
      "outputs": [],
      "stateMutability": "nonpayable",
      "type": "function"
    }
  ],
  "bytecode": "0x60806040523480156200001157600080fd5b506040518060400160405280600f81526020017f50726f6f664f66446f6e6174696f6e00000000000000000000000000000000008152506040518060400160405280600381526020017f504f44000000000000000000000000000000000000000000000000000000000081525081600090805190602001906200009692919062000241565b508060019080519060200190620000af92919062000241565b505050620000d2620000c66200017360201b60201c565b6200017b60201b60201c565b6001600960003373ffffffffffffffffffffffffffffffffffffffff1673ffffffffffffffffffffffffffffffffffffffff16815260200190815260200160002060006101000a81548160ff0219169083151502179055503373ffffffffffffffffffffffffffffffffffffffff167f7524446aaeec02f26d4b8114b6dbced23489ef2b06e64ff29c15e0d852a75a2e60405160405180910390a262000356565b600033905090565b6000600760009054906101000a900473ffffffffffffffffffffffffffffffffffffffff16905081600760006101000a81548173ffffffffffffffffffffffffffffffffffffffff021916908373ffffffffffffffffffffffffffffffffffffffff1602179055508173ffffffffffffffffffffffffffffffffffffffff168173ffffffffffffffffffffffffffffffffffffffff167f8be0079c531659141344cd1fd0a4f28419497f9722a3daafe3b4186f6b6457e060405160405180910390a35050565b8280546200024f9062000320565b90600052602060002090601f016020900481019282620002735760008555620002bf565b82601f106200028e57805160ff1916838001178555620002bf565b82800160010185558215620002bf579182015b82811115620002be578251825591602001919060010190620002a1565b5b509050620002ce9190620002d2565b5090565b5b80821115620002ed576000816000905550600101620002d3565b5090565b7f4e487b7100000000000000000000000000000000000000000000000000000000600052602260045260246000fd5b600060028204905060018216806200033957607f821691505b6020821081141562000350576200034f620002f1565b5b50919050565b613ad780620003666000396000f3fe608060405234801561001057600080fd5b50600436106101375760003560e01c80636352211e116100b857806395d89b411161007c57806395d89b4114610338578063a22cb46514610356578063b88d4fde14610372578063c87b56dd1461038e578063e985e9c5146103be578063f2fde38b146103ee57610137565b80636352211e1461029457806370a08231146102c4578063715018a6146102f45780638b69759d146102fe5780638da5cb5b1461031a57610137565b806323b872dd116100ff57806323b872dd1461020657806338a59a07146102225780633c7d6af31461024057806342842e0e1461025c5780634a4666c11461027857610137565b806301ffc9a71461013c57806306fdde031461016c578063081812fc1461018a578063095ea7b3146101ba57806314ce9a30146101d6575b600080fd5b6101566004803603810190610151919061260c565b61040a565b6040516101639190612654565b60405180910390f35b61017461046b565b6040516101819190612708565b60405180910390f35b6101a4600480360381019061019f9190612760565b6104fd565b6040516101b191906127ce565b60405180910390f35b6101d460048036038101906101cf9190612815565b610543565b005b6101f060048036038101906101eb9190612855565b61065b565b6040516101fd9190612654565b60405180910390f35b610220600480360381019061021b9190612882565b61067b565b005b61022a6106db565b6040516102379190612a06565b60405180910390f35b61025a60048036038101906102559190612bf3565b61080b565b005b61027660048036038101906102719190612882565b610ae6565b005b610292600480360381019061028d9190612855565b610b06565b005b6102ae60048036038101906102a99190612760565b610bac565b6040516102bb91906127ce565b60405180910390f35b6102de60048036038101906102d99190612855565b610c33565b6040516102eb9190612cb8565b60405180910390f35b6102fc610ceb565b005b61031860048036038101906103139190612855565b610cff565b005b610322610da5565b60405161032f91906127ce565b60405180910390f35b610340610dcf565b60405161034d9190612708565b60405180910390f35b610370600480360381019061036b9190612cff565b610e61565b005b61038c60048036038101906103879190612de0565b610e77565b005b6103a860048036038101906103a39190612760565b610ed9565b6040516103b59190612708565b60405180910390f35b6103d860048036038101906103d39190612e63565b610fec565b6040516103e59190612654565b60405180910390f35b61040860048036038101906104039190612855565b611080565b005b6000634906490660e01b7bffffffffffffffffffffffffffffffffffffffffffffffffffffffff1916827bffffffffffffffffffffffffffffffffffffffffffffffffffffffff19161480610464575061046382611104565b5b9050919050565b60606000805461047a90612ed2565b80601f01602080910402602001604051908101604052809291908181526020018280546104a690612ed2565b80156104f35780601f106104c8576101008083540402835291602001916104f3565b820191906000526020600020905b8154815290600101906020018083116104d657829003601f168201915b5050505050905090565b6000610508826111e6565b6004600083815260200190815260200160002060009054906101000a900473ffffffffffffffffffffffffffffffffffffffff169050919050565b600061054e82610bac565b90508073ffffffffffffffffffffffffffffffffffffffff168373ffffffffffffffffffffffffffffffffffffffff1614156105bf576040517f08c379a00000000000000000000000000000000000000000000000000000000081526004016105b690612f76565b60405180910390fd5b8073ffffffffffffffffffffffffffffffffffffffff166105de611231565b73ffffffffffffffffffffffffffffffffffffffff16148061060d575061060c81610607611231565b610fec565b5b61064c576040517f08c379a000000000000000000000000000000000000000000000000000000000815260040161064390613008565b60405180910390fd5b6106568383611239565b505050565b60096020528060005260406000206000915054906101000a900460ff1681565b61068c610686611231565b826112f2565b6106cb576040517f08c379a00000000000000000000000000000000000000000000000000000000081526004016106c29061309a565b60405180910390fd5b6106d6838383611387565b505050565b60606008805480602002602001604051908101604052809291908181526020016000905b828210156108025783829060005260206000209060030201604051806080016040529081600082015481526020016001820160009054906101000a900473ffffffffffffffffffffffffffffffffffffffff1673ffffffffffffffffffffffffffffffffffffffff1673ffffffffffffffffffffffffffffffffffffffff1681526020016002820160009054906101000a900473ffffffffffffffffffffffffffffffffffffffff1673ffffffffffffffffffffffffffffffffffffffff1673ffffffffffffffffffffffffffffffffffffffff1681526020016002820160149054906101000a900460ff161515151581525050815260200190600101906106ff565b50505050905090565b600061085c87878080601f016020809104026020016040519081016040528093929190818152602001838380828437600081840152601f19601f820116905080830192505050505050508685611681565b9050600960008273ffffffffffffffffffffffffffffffffffffffff1673ffffffffffffffffffffffffffffffffffffffff16815260200190815260200160002060009054906101000a900460ff166108ea576040517f08c379a00000000000000000000000000000000000000000000000000000000081526004016108e19061312c565b60405180910390fd5b60008360001c90506108fc86826116cf565b61090681846118ed565b6000610910610da5565b73ffffffffffffffffffffffffffffffffffffffff168373ffffffffffffffffffffffffffffffffffffffff16149050600860405180608001604052808881526020018973ffffffffffffffffffffffffffffffffffffffff1681526020018573ffffffffffffffffffffffffffffffffffffffff16815260200183151581525090806001815401808255809150506001900390600052602060002090600302016000909190919091506000820151816000015560208201518160010160006101000a81548173ffffffffffffffffffffffffffffffffffffffff021916908373ffffffffffffffffffffffffffffffffffffffff16021790555060408201518160020160006101000a81548173ffffffffffffffffffffffffffffffffffffffff021916908373ffffffffffffffffffffffffffffffffffffffff16021790555060608201518160020160146101000a81548160ff02191690831515021790555050508273ffffffffffffffffffffffffffffffffffffffff168773ffffffffffffffffffffffffffffffffffffffff167f3c033c68cebc2e2e67cbf9b5873bc2be102da2dda6e00a9a913ec8c189f345318884604051610ad392919061314c565b60405180910390a3505050505050505050565b610b0183838360405180602001604052806000815250610e77565b505050565b610b0e611998565b6001600960008373ffffffffffffffffffffffffffffffffffffffff1673ffffffffffffffffffffffffffffffffffffffff16815260200190815260200160002060006101000a81548160ff0219169083151502179055508073ffffffffffffffffffffffffffffffffffffffff167f7524446aaeec02f26d4b8114b6dbced23489ef2b06e64ff29c15e0d852a75a2e60405160405180910390a250565b600080610bb883611a16565b9050600073ffffffffffffffffffffffffffffffffffffffff168173ffffffffffffffffffffffffffffffffffffffff161415610c2a576040517f08c379a0000000000000000000000000000000000000000000000000000000008152600401610c21906131c1565b60405180910390fd5b80915050919050565b60008073ffffffffffffffffffffffffffffffffffffffff168273ffffffffffffffffffffffffffffffffffffffff161415610ca4576040517f08c379a0000000000000000000000000000000000000000000000000000000008152600401610c9b90613253565b60405180910390fd5b600360008373ffffffffffffffffffffffffffffffffffffffff1673ffffffffffffffffffffffffffffffffffffffff168152602001908152602001600020549050919050565b610cf3611998565b610cfd6000611a53565b565b610d07611998565b6000600960008373ffffffffffffffffffffffffffffffffffffffff1673ffffffffffffffffffffffffffffffffffffffff16815260200190815260200160002060006101000a81548160ff0219169083151502179055508073ffffffffffffffffffffffffffffffffffffffff167f5af50874cb13ab4e0e17f27e17ed3456b04480f924d45b97db0dd05cc82f505a60405160405180910390a250565b6000600760009054906101000a900473ffffffffffffffffffffffffffffffffffffffff16905090565b606060018054610dde90612ed2565b80601f0160208091040260200160405190810160405280929190818152602001828054610e0a90612ed2565b8015610e575780601f10610e2c57610100808354040283529160200191610e57565b820191906000526020600020905b815481529060010190602001808311610e3a57829003601f168201915b5050505050905090565b610e73610e6c611231565b8383611b19565b5050565b610e88610e82611231565b836112f2565b610ec7576040517f08c379a0000000000000000000000000000000000000000000000000000000008152600401610ebe9061309a565b60405180910390fd5b610ed384848484611c86565b50505050565b6060610ee4826111e6565b6000600660008481526020019081526020016000208054610f0490612ed2565b80601f0160208091040260200160405190810160405280929190818152602001828054610f3090612ed2565b8015610f7d5780601f10610f5257610100808354040283529160200191610f7d565b820191906000526020600020905b815481529060010190602001808311610f6057829003601f168201915b505050505090506000610f8e611ce2565b9050600081511415610fa4578192505050610fe7565b600082511115610fd9578082604051602001610fc19291906132af565b60405160208183030381529060405292505050610fe7565b610fe284611cf9565b925050505b919050565b6000600560008473ffffffffffffffffffffffffffffffffffffffff1673ffffffffffffffffffffffffffffffffffffffff16815260200190815260200160002060008373ffffffffffffffffffffffffffffffffffffffff1673ffffffffffffffffffffffffffffffffffffffff16815260200190815260200160002060009054906101000a900460ff16905092915050565b611088611998565b600073ffffffffffffffffffffffffffffffffffffffff168173ffffffffffffffffffffffffffffffffffffffff1614156110f8576040517f08c379a00000000000000000000000000000000000000000000000000000000081526004016110ef90613345565b60405180910390fd5b61110181611a53565b50565b60007f80ac58cd000000000000000000000000000000000000000000000000000000007bffffffffffffffffffffffffffffffffffffffffffffffffffffffff1916827bffffffffffffffffffffffffffffffffffffffffffffffffffffffff191614806111cf57507f5b5e139f000000000000000000000000000000000000000000000000000000007bffffffffffffffffffffffffffffffffffffffffffffffffffffffff1916827bffffffffffffffffffffffffffffffffffffffffffffffffffffffff1916145b806111df57506111de82611d61565b5b9050919050565b6111ef81611dcb565b61122e576040517f08c379a0000000000000000000000000000000000000000000000000000000008152600401611225906131c1565b60405180910390fd5b50565b600033905090565b816004600083815260200190815260200160002060006101000a81548173ffffffffffffffffffffffffffffffffffffffff021916908373ffffffffffffffffffffffffffffffffffffffff160217905550808273ffffffffffffffffffffffffffffffffffffffff166112ac83610bac565b73ffffffffffffffffffffffffffffffffffffffff167f8c5be1e5ebec7d5bd14f71427d1e84f3dd0314c0f7b2291e5b200ac8c7c3b92560405160405180910390a45050565b6000806112fe83610bac565b90508073ffffffffffffffffffffffffffffffffffffffff168473ffffffffffffffffffffffffffffffffffffffff161480611340575061133f8185610fec565b5b8061137e57508373ffffffffffffffffffffffffffffffffffffffff16611366846104fd565b73ffffffffffffffffffffffffffffffffffffffff16145b91505092915050565b8273ffffffffffffffffffffffffffffffffffffffff166113a782610bac565b73ffffffffffffffffffffffffffffffffffffffff16146113fd576040517f08c379a00000000000000000000000000000000000000000000000000000000081526004016113f4906133d7565b60405180910390fd5b600073ffffffffffffffffffffffffffffffffffffffff168273ffffffffffffffffffffffffffffffffffffffff16141561146d576040517f08c379a000000000000000000000000000000000000000000000000000000000815260040161146490613469565b60405180910390fd5b61147a8383836001611e0c565b8273ffffffffffffffffffffffffffffffffffffffff1661149a82610bac565b73ffffffffffffffffffffffffffffffffffffffff16146114f0576040517f08c379a00000000000000000000000000000000000000000000000000000000081526004016114e7906133d7565b60405180910390fd5b6004600082815260200190815260200160002060006101000a81549073ffffffffffffffffffffffffffffffffffffffff02191690556001600360008573ffffffffffffffffffffffffffffffffffffffff1673ffffffffffffffffffffffffffffffffffffffff168152602001908152602001600020600082825403925050819055506001600360008473ffffffffffffffffffffffffffffffffffffffff1673ffffffffffffffffffffffffffffffffffffffff16815260200190815260200160002060008282540192505081905550816002600083815260200190815260200160002060006101000a81548173ffffffffffffffffffffffffffffffffffffffff021916908373ffffffffffffffffffffffffffffffffffffffff160217905550808273ffffffffffffffffffffffffffffffffffffffff168473ffffffffffffffffffffffffffffffffffffffff167fddf252ad1be2c89b69c2b068fc378daa952ba7f163c4a11628f55a4df523b3ef60405160405180910390a461167c8383836001611e12565b505050565b60006116c6846116b8858560405160200161169d929190613498565b60405160208183030381529060405280519060200120611e18565b611e4e90919063ffffffff16565b90509392505050565b600073ffffffffffffffffffffffffffffffffffffffff168273ffffffffffffffffffffffffffffffffffffffff16141561173f576040517f08c379a00000000000000000000000000000000000000000000000000000000081526004016117369061350d565b60405180910390fd5b61174881611dcb565b15611788576040517f08c379a000000000000000000000000000000000000000000000000000000000815260040161177f90613579565b60405180910390fd5b611796600083836001611e0c565b61179f81611dcb565b156117df576040517f08c379a00000000000000000000000000000000000000000000000000000000081526004016117d690613579565b60405180910390fd5b6001600360008473ffffffffffffffffffffffffffffffffffffffff1673ffffffffffffffffffffffffffffffffffffffff16815260200190815260200160002060008282540192505081905550816002600083815260200190815260200160002060006101000a81548173ffffffffffffffffffffffffffffffffffffffff021916908373ffffffffffffffffffffffffffffffffffffffff160217905550808273ffffffffffffffffffffffffffffffffffffffff16600073ffffffffffffffffffffffffffffffffffffffff167fddf252ad1be2c89b69c2b068fc378daa952ba7f163c4a11628f55a4df523b3ef60405160405180910390a46118e9600083836001611e12565b5050565b6118f682611dcb565b611935576040517f08c379a000000000000000000000000000000000000000000000000000000000815260040161192c9061360b565b60405180910390fd5b8060066000848152602001908152602001600020908051906020019061195c9291906124fd565b507ff8e1a15aba9398e019f0b49df1a4fde98ee17ae345cb5f6b5e2c27f5033e8ce78260405161198c9190612cb8565b60405180910390a15050565b6119a0611231565b73ffffffffffffffffffffffffffffffffffffffff166119be610da5565b73ffffffffffffffffffffffffffffffffffffffff1614611a14576040517f08c379a0000000000000000000000000000000000000000000000000000000008152600401611a0b90613677565b60405180910390fd5b565b60006002600083815260200190815260200160002060009054906101000a900473ffffffffffffffffffffffffffffffffffffffff169050919050565b6000600760009054906101000a900473ffffffffffffffffffffffffffffffffffffffff16905081600760006101000a81548173ffffffffffffffffffffffffffffffffffffffff021916908373ffffffffffffffffffffffffffffffffffffffff1602179055508173ffffffffffffffffffffffffffffffffffffffff168173ffffffffffffffffffffffffffffffffffffffff167f8be0079c531659141344cd1fd0a4f28419497f9722a3daafe3b4186f6b6457e060405160405180910390a35050565b8173ffffffffffffffffffffffffffffffffffffffff168373ffffffffffffffffffffffffffffffffffffffff161415611b88576040517f08c379a0000000000000000000000000000000000000000000000000000000008152600401611b7f906136e3565b60405180910390fd5b80600560008573ffffffffffffffffffffffffffffffffffffffff1673ffffffffffffffffffffffffffffffffffffffff16815260200190815260200160002060008473ffffffffffffffffffffffffffffffffffffffff1673ffffffffffffffffffffffffffffffffffffffff16815260200190815260200160002060006101000a81548160ff0219169083151502179055508173ffffffffffffffffffffffffffffffffffffffff168373ffffffffffffffffffffffffffffffffffffffff167f17307eab39ab6107e8899845ad3d59bd9653f200f220920489ca2b5937696c3183604051611c799190612654565b60405180910390a3505050565b611c91848484611387565b611c9d84848484611e75565b611cdc576040517f08c379a0000000000000000000000000000000000000000000000000000000008152600401611cd390613775565b60405180910390fd5b50505050565b606060405180602001604052806000815250905090565b6060611d04826111e6565b6000611d0e611ce2565b90506000815111611d2e5760405180602001604052806000815250611d59565b80611d388461200c565b604051602001611d499291906132af565b6040516020818303038152906040525b915050919050565b60007f01ffc9a7000000000000000000000000000000000000000000000000000000007bffffffffffffffffffffffffffffffffffffffffffffffffffffffff1916827bffffffffffffffffffffffffffffffffffffffffffffffffffffffff1916149050919050565b60008073ffffffffffffffffffffffffffffffffffffffff16611ded83611a16565b73ffffffffffffffffffffffffffffffffffffffff1614159050919050565b50505050565b50505050565b60007f19457468657265756d205369676e6564204d6573736167653a0a33320000000060005281601c52603c6000209050919050565b6000806000611e5d85856120e4565b91509150611e6a81612136565b819250505092915050565b6000611e968473ffffffffffffffffffffffffffffffffffffffff166122a4565b15611fff578373ffffffffffffffffffffffffffffffffffffffff1663150b7a02611ebf611231565b8786866040518563ffffffff1660e01b8152600401611ee194939291906137ea565b602060405180830381600087803b158015611efb57600080fd5b505af1925050508015611f2c57506040513d601f19601f82011682018060405250810190611f29919061384b565b60015b611faf573d8060008114611f5c576040519150601f19603f3d011682016040523d82523d6000602084013e611f61565b606091505b50600081511415611fa7576040517f08c379a0000000000000000000000000000000000000000000000000000000008152600401611f9e90613775565b60405180910390fd5b805181602001fd5b63150b7a0260e01b7bffffffffffffffffffffffffffffffffffffffffffffffffffffffff1916817bffffffffffffffffffffffffffffffffffffffffffffffffffffffff191614915050612004565b600190505b949350505050565b60606000600161201b846122c7565b01905060008167ffffffffffffffff81111561203a57612039612ac8565b5b6040519080825280601f01601f19166020018201604052801561206c5781602001600182028036833780820191505090505b509050600082602001820190505b6001156120d9578080600190039150507f3031323334353637383961626364656600000000000000000000000000000000600a86061a8153600a85816120c3576120c2613878565b5b04945060008514156120d4576120d9565b61207a565b819350505050919050565b6000806041835114156121265760008060006020860151925060408601519150606086015160001a905061211a8782858561241a565b9450945050505061212f565b60006002915091505b9250929050565b6000600481111561214a576121496138a7565b5b81600481111561215d5761215c6138a7565b5b1415612168576122a1565b6001600481111561217c5761217b6138a7565b5b81600481111561218f5761218e6138a7565b5b14156121d0576040517f08c379a00000000000000000000000000000000000000000000000000000000081526004016121c790613922565b60405180910390fd5b600260048111156121e4576121e36138a7565b5b8160048111156121f7576121f66138a7565b5b1415612238576040517f08c379a000000000000000000000000000000000000000000000000000000000815260040161222f9061398e565b60405180910390fd5b6003600481111561224c5761224b6138a7565b5b81600481111561225f5761225e6138a7565b5b14156122a0576040517f08c379a000000000000000000000000000000000000000000000000000000000815260040161229790613a20565b60405180910390fd5b5b50565b6000808273ffffffffffffffffffffffffffffffffffffffff163b119050919050565b600080600090507a184f03e93ff9f4daa797ed6e38ed64bf6a1f0100000000000000008310612325577a184f03e93ff9f4daa797ed6e38ed64bf6a1f010000000000000000838161231b5761231a613878565b5b0492506040810190505b6d04ee2d6d415b85acef81000000008310612362576d04ee2d6d415b85acef8100000000838161235857612357613878565b5b0492506020810190505b662386f26fc10000831061239157662386f26fc10000838161238757612386613878565b5b0492506010810190505b6305f5e10083106123ba576305f5e10083816123b0576123af613878565b5b0492506008810190505b61271083106123df5761271083816123d5576123d4613878565b5b0492506004810190505b6064831061240257606483816123f8576123f7613878565b5b0492506002810190505b600a8310612411576001810190505b80915050919050565b6000807f7fffffffffffffffffffffffffffffff5d576e7357a4501ddfe92f46681b20a08360001c11156124555760006003915091506124f4565b60006001878787876040516000815260200160405260405161247a9493929190613a5c565b6020604051602081039080840390855afa15801561249c573d6000803e3d6000fd5b505050602060405103519050600073ffffffffffffffffffffffffffffffffffffffff168173ffffffffffffffffffffffffffffffffffffffff1614156124eb576000600192509250506124f4565b80600092509250505b94509492505050565b82805461250990612ed2565b90600052602060002090601f01602090048101928261252b5760008555612572565b82601f1061254457805160ff1916838001178555612572565b82800160010185558215612572579182015b82811115612571578251825591602001919060010190612556565b5b50905061257f9190612583565b5090565b5b8082111561259c576000816000905550600101612584565b5090565b6000604051905090565b600080fd5b600080fd5b60007fffffffff0000000000000000000000000000000000000000000000000000000082169050919050565b6125e9816125b4565b81146125f457600080fd5b50565b600081359050612606816125e0565b92915050565b600060208284031215612622576126216125aa565b5b6000612630848285016125f7565b91505092915050565b60008115159050919050565b61264e81612639565b82525050565b60006020820190506126696000830184612645565b92915050565b600081519050919050565b600082825260208201905092915050565b60005b838110156126a957808201518184015260208101905061268e565b838111156126b8576000848401525b50505050565b6000601f19601f8301169050919050565b60006126da8261266f565b6126e4818561267a565b93506126f481856020860161268b565b6126fd816126be565b840191505092915050565b6000602082019050818103600083015261272281846126cf565b905092915050565b6000819050919050565b61273d8161272a565b811461274857600080fd5b50565b60008135905061275a81612734565b92915050565b600060208284031215612776576127756125aa565b5b60006127848482850161274b565b91505092915050565b600073ffffffffffffffffffffffffffffffffffffffff82169050919050565b60006127b88261278d565b9050919050565b6127c8816127ad565b82525050565b60006020820190506127e360008301846127bf565b92915050565b6127f2816127ad565b81146127fd57600080fd5b50565b60008135905061280f816127e9565b92915050565b6000806040838503121561282c5761282b6125aa565b5b600061283a85828601612800565b925050602061284b8582860161274b565b9150509250929050565b60006020828403121561286b5761286a6125aa565b5b600061287984828501612800565b91505092915050565b60008060006060848603121561289b5761289a6125aa565b5b60006128a986828701612800565b93505060206128ba86828701612800565b92505060406128cb8682870161274b565b9150509250925092565b600081519050919050565b600082825260208201905092915050565b6000819050602082019050919050565b61290a8161272a565b82525050565b612919816127ad565b82525050565b61292881612639565b82525050565b6080820160008201516129446000850182612901565b5060208201516129576020850182612910565b50604082015161296a6040850182612910565b50606082015161297d606085018261291f565b50505050565b600061298f838361292e565b60808301905092915050565b6000602082019050919050565b60006129b3826128d5565b6129bd81856128e0565b93506129c8836128f1565b8060005b838110156129f95781516129e08882612983565b97506129eb8361299b565b9250506001810190506129cc565b5085935050505092915050565b60006020820190508181036000830152612a2081846129a8565b905092915050565b600080fd5b600080fd5b600080fd5b60008083601f840112612a4d57612a4c612a28565b5b8235905067ffffffffffffffff811115612a6a57612a69612a2d565b5b602083019150836001820283011115612a8657612a85612a32565b5b9250929050565b6000819050919050565b612aa081612a8d565b8114612aab57600080fd5b50565b600081359050612abd81612a97565b92915050565b600080fd5b7f4e487b7100000000000000000000000000000000000000000000000000000000600052604160045260246000fd5b612b00826126be565b810181811067ffffffffffffffff82111715612b1f57612b1e612ac8565b5b80604052505050565b6000612b326125a0565b9050612b3e8282612af7565b919050565b600067ffffffffffffffff821115612b5e57612b5d612ac8565b5b612b67826126be565b9050602081019050919050565b82818337600083830152505050565b6000612b96612b9184612b43565b612b28565b905082815260208101848484011115612bb257612bb1612ac3565b5b612bbd848285612b74565b509392505050565b600082601f830112612bda57612bd9612a28565b5b8135612bea848260208601612b83565b91505092915050565b60008060008060008060a08789031215612c1057612c0f6125aa565b5b600087013567ffffffffffffffff811115612c2e57612c2d6125af565b5b612c3a89828a01612a37565b96509650506020612c4d89828a01612800565b9450506040612c5e89828a0161274b565b9350506060612c6f89828a01612aae565b925050608087013567ffffffffffffffff811115612c9057612c8f6125af565b5b612c9c89828a01612bc5565b9150509295509295509295565b612cb28161272a565b82525050565b6000602082019050612ccd6000830184612ca9565b92915050565b612cdc81612639565b8114612ce757600080fd5b50565b600081359050612cf981612cd3565b92915050565b60008060408385031215612d1657612d156125aa565b5b6000612d2485828601612800565b9250506020612d3585828601612cea565b9150509250929050565b600067ffffffffffffffff821115612d5a57612d59612ac8565b5b612d63826126be565b9050602081019050919050565b6000612d83612d7e84612d3f565b612b28565b905082815260208101848484011115612d9f57612d9e612ac3565b5b612daa848285612b74565b509392505050565b600082601f830112612dc757612dc6612a28565b5b8135612dd7848260208601612d70565b91505092915050565b60008060008060808587031215612dfa57612df96125aa565b5b6000612e0887828801612800565b9450506020612e1987828801612800565b9350506040612e2a8782880161274b565b925050606085013567ffffffffffffffff811115612e4b57612e4a6125af565b5b612e5787828801612db2565b91505092959194509250565b60008060408385031215612e7a57612e796125aa565b5b6000612e8885828601612800565b9250506020612e9985828601612800565b9150509250929050565b7f4e487b7100000000000000000000000000000000000000000000000000000000600052602260045260246000fd5b60006002820490506001821680612eea57607f821691505b60208210811415612efe57612efd612ea3565b5b50919050565b7f4552433732313a20617070726f76616c20746f2063757272656e74206f776e6560008201527f7200000000000000000000000000000000000000000000000000000000000000602082015250565b6000612f6060218361267a565b9150612f6b82612f04565b604082019050919050565b60006020820190508181036000830152612f8f81612f53565b9050919050565b7f4552433732313a20617070726f76652063616c6c6572206973206e6f7420746f60008201527f6b656e206f776e6572206f7220617070726f76656420666f7220616c6c000000602082015250565b6000612ff2603d8361267a565b9150612ffd82612f96565b604082019050919050565b6000602082019050818103600083015261302181612fe5565b9050919050565b7f4552433732313a2063616c6c6572206973206e6f7420746f6b656e206f776e6560008201527f72206f7220617070726f76656400000000000000000000000000000000000000602082015250565b6000613084602d8361267a565b915061308f82613028565b604082019050919050565b600060208201905081810360008301526130b381613077565b9050919050565b7f50726f6f664f66446f6e6174696f6e3a20556e617574686f72697a656420736960008201527f676e657200000000000000000000000000000000000000000000000000000000602082015250565b600061311660248361267a565b9150613121826130ba565b604082019050919050565b6000602082019050818103600083015261314581613109565b9050919050565b60006040820190506131616000830185612ca9565b61316e6020830184612645565b9392505050565b7f4552433732313a20696e76616c696420746f6b656e2049440000000000000000600082015250565b60006131ab60188361267a565b91506131b682613175565b602082019050919050565b600060208201905081810360008301526131da8161319e565b9050919050565b7f4552433732313a2061646472657373207a65726f206973206e6f74206120766160008201527f6c6964206f776e65720000000000000000000000000000000000000000000000602082015250565b600061323d60298361267a565b9150613248826131e1565b604082019050919050565b6000602082019050818103600083015261326c81613230565b9050919050565b600081905092915050565b60006132898261266f565b6132938185613273565b93506132a381856020860161268b565b80840191505092915050565b60006132bb828561327e565b91506132c7828461327e565b91508190509392505050565b7f4f776e61626c653a206e6577206f776e657220697320746865207a65726f206160008201527f6464726573730000000000000000000000000000000000000000000000000000602082015250565b600061332f60268361267a565b915061333a826132d3565b604082019050919050565b6000602082019050818103600083015261335e81613322565b9050919050565b7f4552433732313a207472616e736665722066726f6d20696e636f72726563742060008201527f6f776e6572000000000000000000000000000000000000000000000000000000602082015250565b60006133c160258361267a565b91506133cc82613365565b604082019050919050565b600060208201905081810360008301526133f0816133b4565b9050919050565b7f4552433732313a207472616e7366657220746f20746865207a65726f2061646460008201527f7265737300000000000000000000000000000000000000000000000000000000602082015250565b600061345360248361267a565b915061345e826133f7565b604082019050919050565b6000602082019050818103600083015261348281613446565b9050919050565b61349281612a8d565b82525050565b60006040820190506134ad60008301856127bf565b6134ba6020830184613489565b9392505050565b7f4552433732313a206d696e7420746f20746865207a65726f2061646472657373600082015250565b60006134f760208361267a565b9150613502826134c1565b602082019050919050565b60006020820190508181036000830152613526816134ea565b9050919050565b7f4552433732313a20746f6b656e20616c7265616479206d696e74656400000000600082015250565b6000613563601c8361267a565b915061356e8261352d565b602082019050919050565b6000602082019050818103600083015261359281613556565b9050919050565b7f45524337323155524953746f726167653a2055524920736574206f66206e6f6e60008201527f6578697374656e7420746f6b656e000000000000000000000000000000000000602082015250565b60006135f5602e8361267a565b915061360082613599565b604082019050919050565b60006020820190508181036000830152613624816135e8565b9050919050565b7f4f776e61626c653a2063616c6c6572206973206e6f7420746865206f776e6572600082015250565b600061366160208361267a565b915061366c8261362b565b602082019050919050565b6000602082019050818103600083015261369081613654565b9050919050565b7f4552433732313a20617070726f766520746f2063616c6c657200000000000000600082015250565b60006136cd60198361267a565b91506136d882613697565b602082019050919050565b600060208201905081810360008301526136fc816136c0565b9050919050565b7f4552433732313a207472616e7366657220746f206e6f6e20455243373231526560008201527f63656976657220696d706c656d656e7465720000000000000000000000000000602082015250565b600061375f60328361267a565b915061376a82613703565b604082019050919050565b6000602082019050818103600083015261378e81613752565b9050919050565b600081519050919050565b600082825260208201905092915050565b60006137bc82613795565b6137c681856137a0565b93506137d681856020860161268b565b6137df816126be565b840191505092915050565b60006080820190506137ff60008301876127bf565b61380c60208301866127bf565b6138196040830185612ca9565b818103606083015261382b81846137b1565b905095945050505050565b600081519050613845816125e0565b92915050565b600060208284031215613861576138606125aa565b5b600061386f84828501613836565b91505092915050565b7f4e487b7100000000000000000000000000000000000000000000000000000000600052601260045260246000fd5b7f4e487b7100000000000000000000000000000000000000000000000000000000600052602160045260246000fd5b7f45434453413a20696e76616c6964207369676e61747572650000000000000000600082015250565b600061390c60188361267a565b9150613917826138d6565b602082019050919050565b6000602082019050818103600083015261393b816138ff565b9050919050565b7f45434453413a20696e76616c6964207369676e6174757265206c656e67746800600082015250565b6000613978601f8361267a565b915061398382613942565b602082019050919050565b600060208201905081810360008301526139a78161396b565b9050919050565b7f45434453413a20696e76616c6964207369676e6174757265202773272076616c60008201527f7565000000000000000000000000000000000000000000000000000000000000602082015250565b6000613a0a60228361267a565b9150613a15826139ae565b604082019050919050565b60006020820190508181036000830152613a39816139fd565b9050919050565b600060ff82169050919050565b613a5681613a40565b82525050565b6000608082019050613a716000830187613489565b613a7e6020830186613a4d565b613a8b6040830185613489565b613a986060830184613489565b9594505050505056fea264697066735822122090fa39b61fa8d2184e004df9dfa2a73f732be7cc8f68ea7e25d62b3abcd81dfb64736f6c63430008090033",
  "linkReferences": {},
  "deployedLinkReferences": {}
}